{
  "abi": [
    {
      "inputs": [
        {
          "internalType": "address",
          "name": "staking_",
          "type": "address"
        }
      ],
      "payable": false,
      "stateMutability": "nonpayable",
      "type": "constructor"
    },
    {
      "anonymous": false,
      "inputs": [
        {
          "indexed": false,
          "internalType": "uint256",
          "name": "id",
          "type": "uint256"
        }
      ],
      "name": "ProposalCanceled",
      "type": "event"
    },
    {
      "anonymous": false,
      "inputs": [
        {
          "indexed": false,
          "internalType": "uint256",
          "name": "id",
          "type": "uint256"
        },
        {
          "indexed": false,
          "internalType": "address",
          "name": "proposer",
          "type": "address"
        },
        {
          "indexed": false,
          "internalType": "address[]",
          "name": "targets",
          "type": "address[]"
        },
        {
          "indexed": false,
          "internalType": "uint256[]",
          "name": "values",
          "type": "uint256[]"
        },
        {
          "indexed": false,
          "internalType": "string[]",
          "name": "signatures",
          "type": "string[]"
        },
        {
          "indexed": false,
          "internalType": "bytes[]",
          "name": "calldatas",
          "type": "bytes[]"
        },
        {
          "indexed": false,
          "internalType": "uint256",
          "name": "startBlock",
          "type": "uint256"
        },
        {
          "indexed": false,
          "internalType": "uint256",
          "name": "endBlock",
          "type": "uint256"
        },
        {
          "indexed": false,
          "internalType": "string",
          "name": "description",
          "type": "string"
        }
      ],
      "name": "ProposalCreated",
      "type": "event"
    },
    {
      "anonymous": false,
      "inputs": [
        {
          "indexed": false,
          "internalType": "uint256",
          "name": "id",
          "type": "uint256"
        }
      ],
      "name": "ProposalExecuted",
      "type": "event"
    },
    {
      "anonymous": false,
      "inputs": [
        {
          "indexed": false,
          "internalType": "uint256",
          "name": "id",
          "type": "uint256"
        },
        {
          "indexed": false,
          "internalType": "uint256",
          "name": "eta",
          "type": "uint256"
        }
      ],
      "name": "ProposalQueued",
      "type": "event"
    },
    {
      "anonymous": false,
      "inputs": [
        {
          "indexed": false,
          "internalType": "address",
          "name": "voter",
          "type": "address"
        },
        {
          "indexed": false,
          "internalType": "uint256",
          "name": "proposalId",
          "type": "uint256"
        },
        {
          "indexed": false,
          "internalType": "bool",
          "name": "support",
          "type": "bool"
        },
        {
          "indexed": false,
          "internalType": "uint256",
          "name": "votes",
          "type": "uint256"
        }
      ],
      "name": "VoteCast",
      "type": "event"
    },
    {
      "constant": true,
      "inputs": [],
      "name": "BALLOT_TYPEHASH",
      "outputs": [
        {
          "internalType": "bytes32",
          "name": "",
          "type": "bytes32"
        }
      ],
      "payable": false,
      "stateMutability": "view",
      "type": "function"
    },
    {
      "constant": true,
      "inputs": [],
      "name": "DOMAIN_TYPEHASH",
      "outputs": [
        {
          "internalType": "bytes32",
          "name": "",
          "type": "bytes32"
        }
      ],
      "payable": false,
      "stateMutability": "view",
      "type": "function"
    },
    {
      "constant": false,
      "inputs": [],
      "name": "__abdicate",
      "outputs": [],
      "payable": false,
      "stateMutability": "nonpayable",
      "type": "function"
    },
    {
      "constant": false,
      "inputs": [],
      "name": "__acceptAdmin",
      "outputs": [],
      "payable": false,
      "stateMutability": "nonpayable",
      "type": "function"
    },
    {
      "constant": false,
      "inputs": [
        {
          "internalType": "address",
          "name": "guardian_",
          "type": "address"
        }
      ],
      "name": "__changeGuardian",
      "outputs": [],
      "payable": false,
      "stateMutability": "nonpayable",
      "type": "function"
    },
    {
      "constant": false,
      "inputs": [
        {
          "internalType": "address",
          "name": "newPendingAdmin",
          "type": "address"
        },
        {
          "internalType": "uint256",
          "name": "eta",
          "type": "uint256"
        }
      ],
      "name": "__executeSetTimelockPendingAdmin",
      "outputs": [],
      "payable": false,
      "stateMutability": "nonpayable",
      "type": "function"
    },
    {
      "constant": false,
      "inputs": [
        {
          "internalType": "address",
          "name": "newPendingAdmin",
          "type": "address"
        },
        {
          "internalType": "uint256",
          "name": "eta",
          "type": "uint256"
        }
      ],
      "name": "__queueSetTimelockPendingAdmin",
      "outputs": [],
      "payable": false,
      "stateMutability": "nonpayable",
      "type": "function"
    },
    {
      "constant": false,
      "inputs": [
        {
          "internalType": "uint256",
          "name": "proposalId",
          "type": "uint256"
        }
      ],
      "name": "cancel",
      "outputs": [],
      "payable": false,
      "stateMutability": "nonpayable",
      "type": "function"
    },
    {
      "constant": false,
      "inputs": [
        {
          "internalType": "uint256",
          "name": "proposalId",
          "type": "uint256"
        },
        {
          "internalType": "bool",
          "name": "support",
          "type": "bool"
        }
      ],
      "name": "castVote",
      "outputs": [],
      "payable": false,
      "stateMutability": "nonpayable",
      "type": "function"
    },
    {
      "constant": false,
      "inputs": [
        {
          "internalType": "uint256",
          "name": "proposalId",
          "type": "uint256"
        },
        {
          "internalType": "bool",
          "name": "support",
          "type": "bool"
        },
        {
          "internalType": "uint8",
          "name": "v",
          "type": "uint8"
        },
        {
          "internalType": "bytes32",
          "name": "r",
          "type": "bytes32"
        },
        {
          "internalType": "bytes32",
          "name": "s",
          "type": "bytes32"
        }
      ],
      "name": "castVoteBySig",
      "outputs": [],
      "payable": false,
      "stateMutability": "nonpayable",
      "type": "function"
    },
    {
      "constant": false,
      "inputs": [
        {
          "internalType": "uint256",
          "name": "proposalId",
          "type": "uint256"
        }
      ],
      "name": "execute",
      "outputs": [],
      "payable": true,
      "stateMutability": "payable",
      "type": "function"
    },
    {
      "constant": true,
      "inputs": [
        {
          "internalType": "uint256",
          "name": "proposalId",
          "type": "uint256"
        }
      ],
      "name": "getActions",
      "outputs": [
        {
          "internalType": "address[]",
          "name": "targets",
          "type": "address[]"
        },
        {
          "internalType": "uint256[]",
          "name": "values",
          "type": "uint256[]"
        },
        {
          "internalType": "string[]",
          "name": "signatures",
          "type": "string[]"
        },
        {
          "internalType": "bytes[]",
          "name": "calldatas",
          "type": "bytes[]"
        }
      ],
      "payable": false,
      "stateMutability": "view",
      "type": "function"
    },
    {
      "constant": true,
      "inputs": [
        {
          "internalType": "uint256",
          "name": "proposalId",
          "type": "uint256"
        },
        {
          "internalType": "address",
          "name": "voter",
          "type": "address"
        }
      ],
      "name": "getReceipt",
      "outputs": [
        {
          "components": [
            {
              "internalType": "bool",
              "name": "hasVoted",
              "type": "bool"
            },
            {
              "internalType": "bool",
              "name": "support",
              "type": "bool"
            },
            {
              "internalType": "uint256",
              "name": "votes",
              "type": "uint256"
            }
          ],
          "internalType": "struct GovernorAlphaBZX.Receipt",
          "name": "",
          "type": "tuple"
        }
      ],
      "payable": false,
      "stateMutability": "view",
      "type": "function"
    },
    {
      "constant": true,
      "inputs": [],
      "name": "guardian",
      "outputs": [
        {
          "internalType": "address",
          "name": "",
          "type": "address"
        }
      ],
      "payable": false,
      "stateMutability": "view",
      "type": "function"
    },
    {
      "constant": true,
      "inputs": [
        {
          "internalType": "address",
          "name": "",
          "type": "address"
        }
      ],
      "name": "latestProposalIds",
      "outputs": [
        {
          "internalType": "uint256",
          "name": "",
          "type": "uint256"
        }
      ],
      "payable": false,
      "stateMutability": "view",
      "type": "function"
    },
    {
      "constant": true,
      "inputs": [],
      "name": "name",
      "outputs": [
        {
          "internalType": "string",
          "name": "",
          "type": "string"
        }
      ],
      "payable": false,
      "stateMutability": "view",
      "type": "function"
    },
    {
      "constant": true,
      "inputs": [],
      "name": "proposalCount",
      "outputs": [
        {
          "internalType": "uint256",
          "name": "",
          "type": "uint256"
        }
      ],
      "payable": false,
      "stateMutability": "view",
      "type": "function"
    },
    {
      "constant": true,
      "inputs": [],
      "name": "proposalMaxOperations",
      "outputs": [
        {
          "internalType": "uint256",
          "name": "",
          "type": "uint256"
        }
      ],
      "payable": false,
      "stateMutability": "pure",
      "type": "function"
    },
    {
      "constant": true,
      "inputs": [],
      "name": "proposalThreshold",
      "outputs": [
        {
          "internalType": "uint256",
          "name": "",
          "type": "uint256"
        }
      ],
      "payable": false,
      "stateMutability": "pure",
      "type": "function"
    },
    {
      "constant": true,
      "inputs": [
        {
          "internalType": "uint256",
          "name": "",
          "type": "uint256"
        }
      ],
      "name": "proposals",
      "outputs": [
        {
          "internalType": "uint256",
          "name": "id",
          "type": "uint256"
        },
        {
          "internalType": "address",
          "name": "proposer",
          "type": "address"
        },
        {
          "internalType": "uint256",
          "name": "eta",
          "type": "uint256"
        },
        {
          "internalType": "uint256",
          "name": "startBlock",
          "type": "uint256"
        },
        {
          "internalType": "uint256",
          "name": "endBlock",
          "type": "uint256"
        },
        {
          "internalType": "uint256",
          "name": "forVotes",
          "type": "uint256"
        },
        {
          "internalType": "uint256",
          "name": "againstVotes",
          "type": "uint256"
        },
        {
          "internalType": "bool",
          "name": "canceled",
          "type": "bool"
        },
        {
          "internalType": "bool",
          "name": "executed",
          "type": "bool"
        }
      ],
      "payable": false,
      "stateMutability": "view",
      "type": "function"
    },
    {
      "constant": false,
      "inputs": [
        {
          "internalType": "address[]",
          "name": "targets",
          "type": "address[]"
        },
        {
          "internalType": "uint256[]",
          "name": "values",
          "type": "uint256[]"
        },
        {
          "internalType": "string[]",
          "name": "signatures",
          "type": "string[]"
        },
        {
          "internalType": "bytes[]",
          "name": "calldatas",
          "type": "bytes[]"
        },
        {
          "internalType": "string",
          "name": "description",
          "type": "string"
        }
      ],
      "name": "propose",
      "outputs": [
        {
          "internalType": "uint256",
          "name": "",
          "type": "uint256"
        }
      ],
      "payable": false,
      "stateMutability": "nonpayable",
      "type": "function"
    },
    {
      "constant": false,
      "inputs": [
        {
          "internalType": "uint256",
          "name": "proposalId",
          "type": "uint256"
        }
      ],
      "name": "queue",
      "outputs": [],
      "payable": false,
      "stateMutability": "nonpayable",
      "type": "function"
    },
    {
      "constant": true,
      "inputs": [],
      "name": "quorumVotes",
      "outputs": [
        {
          "internalType": "uint256",
          "name": "",
          "type": "uint256"
        }
      ],
      "payable": false,
      "stateMutability": "pure",
      "type": "function"
    },
    {
      "constant": true,
      "inputs": [],
      "name": "staking",
      "outputs": [
        {
          "internalType": "contract StakingInterface",
          "name": "",
          "type": "address"
        }
      ],
      "payable": false,
      "stateMutability": "view",
      "type": "function"
    },
    {
      "constant": true,
      "inputs": [
        {
          "internalType": "uint256",
          "name": "proposalId",
          "type": "uint256"
        }
      ],
      "name": "state",
      "outputs": [
        {
          "internalType": "enum GovernorAlphaBZX.ProposalState",
          "name": "",
          "type": "uint8"
        }
      ],
      "payable": false,
      "stateMutability": "view",
      "type": "function"
    },
    {
      "constant": true,
      "inputs": [],
      "name": "timelock",
      "outputs": [
        {
          "internalType": "contract TimelockInterface",
          "name": "",
          "type": "address"
        }
      ],
      "payable": false,
      "stateMutability": "view",
      "type": "function"
    },
    {
      "constant": true,
      "inputs": [],
      "name": "votingDelay",
      "outputs": [
        {
          "internalType": "uint256",
          "name": "",
          "type": "uint256"
        }
      ],
      "payable": false,
      "stateMutability": "pure",
      "type": "function"
    },
    {
      "constant": true,
      "inputs": [],
      "name": "votingPeriod",
      "outputs": [
        {
          "internalType": "uint256",
          "name": "",
          "type": "uint256"
        }
      ],
      "payable": false,
      "stateMutability": "pure",
      "type": "function"
    }
  ],
  "bytecode": "60806040523480156200001157600080fd5b50604051620039da380380620039da833981016040819052620000349162000076565b600080546001600160a01b039092166001600160a01b03199283161790556001805490911633179055620000cb565b80516200007081620000b1565b92915050565b6000602082840312156200008957600080fd5b600062000097848462000063565b949350505050565b60006001600160a01b03821662000070565b620000bc816200009f565b8114620000c857600080fd5b50565b6138ff80620000db6000396000f3fe6080604052600436106101b75760003560e01c80634cf088d9116100ec578063d33219b41161008a578063ddf0b00911610064578063ddf0b0091461049e578063deaaa7cc146104be578063e23a9a52146104d3578063fe0d94c114610500576101b7565b8063d33219b414610454578063da35c66414610469578063da95691a1461047e576101b7565b806391500671116100c657806391500671146103ea578063b58131b01461040a578063b5c4f54a1461041f578063b9a619611461043f576101b7565b80634cf088d91461039e578063760fbc13146103c05780637bdbe4d0146103d5576101b7565b806324bc1a64116101595780633e4f49e6116101335780633e4f49e61461030f57806340e58ee51461033c578063452a93201461035c5780634634c61f1461037e576101b7565b806324bc1a64146102b5578063328dd982146102ca5780633932abb1146102fa576101b7565b806315373e3d1161019557806315373e3d1461023e57806317977c611461026057806320606b701461028057806321f43e4214610295576101b7565b8063013cf08b146101bc57806302a251a3146101fa57806306fdde031461021c575b600080fd5b3480156101c857600080fd5b506101dc6101d73660046124d3565b610513565b6040516101f1999897969594939291906136ca565b60405180910390f35b34801561020657600080fd5b5061020f61056c565b6040516101f191906133f4565b34801561022857600080fd5b50610231610573565b6040516101f191906134a3565b34801561024a57600080fd5b5061025e610259366004612521565b6105a1565b005b34801561026c57600080fd5b5061020f61027b366004612316565b6105b0565b34801561028c57600080fd5b5061020f6105c2565b3480156102a157600080fd5b5061025e6102b036600461233c565b6105d9565b3480156102c157600080fd5b5061020f6106e1565b3480156102d657600080fd5b506102ea6102e53660046124d3565b6106f0565b6040516101f194939291906133a7565b34801561030657600080fd5b5061020f61097f565b34801561031b57600080fd5b5061032f61032a3660046124d3565b610984565b6040516101f19190613495565b34801561034857600080fd5b5061025e6103573660046124d3565b610b0f565b34801561036857600080fd5b50610371610d6b565b6040516101f19190613251565b34801561038a57600080fd5b5061025e610399366004612551565b610d7a565b3480156103aa57600080fd5b506103b3610f0c565b6040516101f19190613487565b3480156103cc57600080fd5b5061025e610f1b565b3480156103e157600080fd5b5061020f610f57565b3480156103f657600080fd5b5061025e61040536600461233c565b610f5c565b34801561041657600080fd5b5061020f611052565b34801561042b57600080fd5b5061025e61043a366004612316565b611061565b34801561044b57600080fd5b5061025e6110d3565b34801561046057600080fd5b506103b3611166565b34801561047557600080fd5b5061020f61117e565b34801561048a57600080fd5b5061020f610499366004612376565b611184565b3480156104aa57600080fd5b5061025e6104b93660046124d3565b61156e565b3480156104ca57600080fd5b5061020f6117ed565b3480156104df57600080fd5b506104f36104ee3660046124f1565b6117f9565b6040516101f19190613614565b61025e61050e3660046124d3565b61185d565b6003602052600090815260409020805460018201546002830154600784015460088501546009860154600a870154600b9097015495966001600160a01b0390951695939492939192909160ff8082169161010090041689565b6143805b90565b60405180604001604052806012815260200171625a7820476f7665726e6f7220416c70686160701b81525081565b6105ac338383611a2e565b5050565b60046020526000908152604090205481565b6040516105ce9061323b565b604051809103902081565b6001546001600160a01b0316331461060c5760405162461bcd60e51b815260040161060390613534565b60405180910390fd5b73bb536eb24fb89b544d4bd9e9f1f34d9fd902bb966001600160a01b0316630825f38f73bb536eb24fb89b544d4bd9e9f1f34d9fd902bb966000856040516020016106579190613251565b604051602081830303815290604052856040518563ffffffff1660e01b8152600401610686949392919061327a565b600060405180830381600087803b1580156106a057600080fd5b505af11580156106b4573d6000803e3d6000fd5b505050506040513d6000823e601f3d908101601f191682016040526106dc919081019061249e565b505050565b6a22147079ae94a4b600000090565b6060806060806000600360008781526020019081526020016000209050806003018160040182600501836006018380548060200260200160405190810160405280929190818152602001828054801561077257602002820191906000526020600020905b81546001600160a01b03168152600190910190602001808311610754575b50505050509350828054806020026020016040519081016040528092919081815260200182805480156107c457602002820191906000526020600020905b8154815260200190600101908083116107b0575b5050505050925081805480602002602001604051908101604052809291908181526020016000905b828210156108975760008481526020908190208301805460408051601f60026000196101006001871615020190941693909304928301859004850281018501909152818152928301828280156108835780601f1061085857610100808354040283529160200191610883565b820191906000526020600020905b81548152906001019060200180831161086657829003601f168201915b5050505050815260200190600101906107ec565b50505050915080805480602002602001604051908101604052809291908181526020016000905b828210156109695760008481526020908190208301805460408051601f60026000196101006001871615020190941693909304928301859004850281018501909152818152928301828280156109555780601f1061092a57610100808354040283529160200191610955565b820191906000526020600020905b81548152906001019060200180831161093857829003601f168201915b5050505050815260200190600101906108be565b5050505090509450945094509450509193509193565b600190565b600081600254101580156109985750600082115b6109b45760405162461bcd60e51b815260040161060390613604565b6000828152600360205260409020600b81015460ff16156109d9576002915050610b0a565b806007015443116109ee576000915050610b0a565b80600801544311610a03576001915050610b0a565b80600a01548160090154111580610a245750610a1d6106e1565b8160090154105b15610a33576003915050610b0a565b6002810154610a46576004915050610b0a565b600b810154610100900460ff1615610a62576007915050610b0a565b610af4816002015473bb536eb24fb89b544d4bd9e9f1f34d9fd902bb966001600160a01b031663c1a287e26040518163ffffffff1660e01b815260040160206040518083038186803b158015610ab757600080fd5b505afa158015610acb573d6000803e3d6000fd5b505050506040513d601f19601f82011682018060405250610aef9190810190612480565b611bc7565b4210610b04576006915050610b0a565b60059150505b919050565b6000610b1a82610984565b90506007816007811115610b2a57fe5b1415610b485760405162461bcd60e51b815260040161060390613504565b60008281526003602052604090206001546001600160a01b0316331480610bfa5750610b72611052565b600054600183015460405163abbd3ab160e01b81526001600160a01b039283169263abbd3ab192610ba892911690600401613251565b60206040518083038186803b158015610bc057600080fd5b505afa158015610bd4573d6000803e3d6000fd5b505050506040513d601f19601f82011682018060405250610bf89190810190612480565b105b610c165760405162461bcd60e51b8152600401610603906134d4565b600b8101805460ff1916600117905560005b6003820154811015610d2e5773bb536eb24fb89b544d4bd9e9f1f34d9fd902bb966001600160a01b031663591fcdfe836003018381548110610c6657fe5b6000918252602090912001546004850180546001600160a01b039092169185908110610c8e57fe5b9060005260206000200154856005018581548110610ca857fe5b90600052602060002001866006018681548110610cc157fe5b9060005260206000200187600201546040518663ffffffff1660e01b8152600401610cf0959493929190613366565b600060405180830381600087803b158015610d0a57600080fd5b505af1158015610d1e573d6000803e3d6000fd5b505060019092019150610c289050565b507f789cf55be980739dad1d0699b93b58e806b51c9d96619bfa8fe0a28abaa7b30c83604051610d5e91906133f4565b60405180910390a1505050565b6001546001600160a01b031681565b6000604051610d889061323b565b604080519182900382208282019091526012825271625a7820476f7665726e6f7220416c70686160701b6020909201919091527f0f93e98d4ea58e753cf841f4f43e67f94fb5ea5f33843216274cfd273a0aa513610de4611bf3565b30604051602001610df89493929190613402565b6040516020818303038152906040528051906020012090506000604051610e1e90613246565b604051908190038120610e379189908990602001613437565b60405160208183030381529060405280519060200120905060008282604051602001610e6492919061320a565b604051602081830303815290604052805190602001209050600060018288888860405160008152602001604052604051610ea1949392919061345f565b6020604051602081039080840390855afa158015610ec3573d6000803e3d6000fd5b5050604051601f1901519150506001600160a01b038116610ef65760405162461bcd60e51b8152600401610603906134f4565b610f01818a8a611a2e565b505050505050505050565b6000546001600160a01b031681565b6001546001600160a01b03163314610f455760405162461bcd60e51b8152600401610603906135d4565b600180546001600160a01b0319169055565b600a90565b6001546001600160a01b03163314610f865760405162461bcd60e51b815260040161060390613564565b73bb536eb24fb89b544d4bd9e9f1f34d9fd902bb966001600160a01b0316633a66f90173bb536eb24fb89b544d4bd9e9f1f34d9fd902bb96600085604051602001610fd19190613251565b604051602081830303815290604052856040518563ffffffff1660e01b8152600401611000949392919061327a565b602060405180830381600087803b15801561101a57600080fd5b505af115801561102e573d6000803e3d6000fd5b505050506040513d601f19601f820116820180604052506106dc9190810190612480565b6a08851c1e6ba5292d80000090565b6001546001600160a01b0316331461108b5760405162461bcd60e51b8152600401610603906134c4565b6001600160a01b0381166110b15760405162461bcd60e51b8152600401610603906134e4565b600180546001600160a01b0319166001600160a01b0392909216919091179055565b6001546001600160a01b031633146110fd5760405162461bcd60e51b815260040161060390613514565b73bb536eb24fb89b544d4bd9e9f1f34d9fd902bb966001600160a01b0316630e18b6816040518163ffffffff1660e01b8152600401600060405180830381600087803b15801561114c57600080fd5b505af1158015611160573d6000803e3d6000fd5b50505050565b73bb536eb24fb89b544d4bd9e9f1f34d9fd902bb9681565b60025481565b60025460008054604051632a5522af60e01b815291926001019183916001600160a01b031690632a5522af906111c0903390869060040161325f565b602060405180830381600087803b1580156111da57600080fd5b505af11580156111ee573d6000803e3d6000fd5b505050506040513d601f19601f820116820180604052506112129190810190612480565b905061121c611052565b811161123a5760405162461bcd60e51b815260040161060390613584565b8651885114801561124c575085518851145b8015611259575084518851145b6112755760405162461bcd60e51b815260040161060390613554565b87516112935760405162461bcd60e51b8152600401610603906135e4565b61129b610f57565b885111156112bb5760405162461bcd60e51b815260040161060390613544565b60006112c943610aef61097f565b905060006112d982610aef61056c565b600285905590506112e8611d6b565b604051806101a00160405280868152602001336001600160a01b03168152602001600081526020018c81526020018b81526020018a815260200189815260200184815260200183815260200160008152602001600081526020016000151581526020016000151581525090508060036000836000015181526020019081526020016000206000820151816000015560208201518160010160006101000a8154816001600160a01b0302191690836001600160a01b031602179055506040820151816002015560608201518160030190805190602001906113c9929190611de0565b50608082015180516113e5916004840191602090910190611e45565b5060a08201518051611401916005840191602090910190611e8c565b5060c0820151805161141d916006840191602090910190611ee5565b5060e082015160078201556101008083015160088301556101208301516009830155610140830151600a830155610160830151600b90920180546101809094015160ff199094169215159290921761ff0019169215150291909117905580516020808301516001600160a01b0316600090815260049091526040808220929092553381522054945084156115125760006114b686610984565b905060018160078111156114c657fe5b14156114e45760405162461bcd60e51b8152600401610603906134b4565b60008160078111156114f257fe5b14156115105760405162461bcd60e51b8152600401610603906135b4565b505b7f7d84a6263ae0d98d3329bd7b46bb4e8d6f98cd35a7adb45c274c8b7fd5ebd5e08160000151338d8d8d8d89898f60405161155599989796959493929190613622565b60405180910390a1519450505050505b95945050505050565b600461157982610984565b600781111561158457fe5b146115a15760405162461bcd60e51b8152600401610603906135a4565b6000600360008381526020019081526020016000209050600061160b4273bb536eb24fb89b544d4bd9e9f1f34d9fd902bb966001600160a01b0316636a42b8f86040518163ffffffff1660e01b815260040160206040518083038186803b158015610ab757600080fd5b905060005b60038301548110156117b3576117ab83600301828154811061162e57fe5b6000918252602090912001546004850180546001600160a01b03909216918490811061165657fe5b906000526020600020015485600501848154811061167057fe5b600091825260209182902001805460408051601f60026000196101006001871615020190941693909304928301859004850281018501909152818152928301828280156116fe5780601f106116d3576101008083540402835291602001916116fe565b820191906000526020600020905b8154815290600101906020018083116116e157829003601f168201915b505050505086600601858154811061171257fe5b600091825260209182902001805460408051601f60026000196101006001871615020190941693909304928301859004850281018501909152818152928301828280156117a05780601f10611775576101008083540402835291602001916117a0565b820191906000526020600020905b81548152906001019060200180831161178357829003601f168201915b505050505086611bf7565b600101611610565b50600282018190556040517f9a2e42fd6722813d69113e7d0079d3d940171428df7373df9c7f7617cfda289290610d5e9085908490613750565b6040516105ce90613246565b611801611f3e565b5060008281526003602090815260408083206001600160a01b0385168452600c018252918290208251606081018452815460ff808216151583526101009091041615159281019290925260010154918101919091525b92915050565b600561186882610984565b600781111561187357fe5b146118905760405162461bcd60e51b8152600401610603906135c4565b6000818152600360205260408120600b8101805461ff001916610100179055905b60038201548110156119f25773bb536eb24fb89b544d4bd9e9f1f34d9fd902bb966001600160a01b0316630825f38f8360040183815481106118ef57fe5b906000526020600020015484600301848154811061190957fe5b6000918252602090912001546004860180546001600160a01b03909216918690811061193157fe5b906000526020600020015486600501868154811061194b57fe5b9060005260206000200187600601878154811061196457fe5b9060005260206000200188600201546040518763ffffffff1660e01b8152600401611993959493929190613366565b6000604051808303818588803b1580156119ac57600080fd5b505af11580156119c0573d6000803e3d6000fd5b50505050506040513d6000823e601f3d908101601f191682016040526119e9919081019061249e565b506001016118b1565b507f712ae1383f79ac853f8d882153778e0260ef8f03b504e2866e0593e04d2b291f82604051611a2291906133f4565b60405180910390a15050565b6001611a3983610984565b6007811115611a4457fe5b14611a615760405162461bcd60e51b815260040161060390613574565b60008281526003602090815260408083206001600160a01b0387168452600c8101909252909120805460ff1615611aaa5760405162461bcd60e51b8152600401610603906135f4565b6000805460405163c115929760e01b81526001600160a01b039091169063c115929790611add90899089906004016132c9565b60206040518083038186803b158015611af557600080fd5b505afa158015611b09573d6000803e3d6000fd5b505050506040513d601f19601f82011682018060405250611b2d9190810190612480565b90508315611b4d57611b43836009015482611bc7565b6009840155611b61565b611b5b83600a015482611bc7565b600a8401555b8154600160ff19909116811761ff0019166101008615150217835582018190556040517f877856338e13f63d0c36822ff0ef736b80934cd90574a3a5bc9262c39d217c4690611bb79088908890889086906132d7565b60405180910390a1505050505050565b600082820183811015611bec5760405162461bcd60e51b815260040161060390613594565b9392505050565b4690565b73bb536eb24fb89b544d4bd9e9f1f34d9fd902bb966001600160a01b031663f2b065378686868686604051602001611c3395949392919061330c565b604051602081830303815290604052805190602001206040518263ffffffff1660e01b8152600401611c6591906133f4565b60206040518083038186803b158015611c7d57600080fd5b505afa158015611c91573d6000803e3d6000fd5b505050506040513d601f19601f82011682018060405250611cb59190810190612462565b15611cd25760405162461bcd60e51b815260040161060390613524565b604051633a66f90160e01b815273bb536eb24fb89b544d4bd9e9f1f34d9fd902bb9690633a66f90190611d11908890889088908890889060040161330c565b602060405180830381600087803b158015611d2b57600080fd5b505af1158015611d3f573d6000803e3d6000fd5b505050506040513d601f19601f82011682018060405250611d639190810190612480565b505050505050565b604051806101a001604052806000815260200160006001600160a01b031681526020016000815260200160608152602001606081526020016060815260200160608152602001600081526020016000815260200160008152602001600081526020016000151581526020016000151581525090565b828054828255906000526020600020908101928215611e35579160200282015b82811115611e3557825182546001600160a01b0319166001600160a01b03909116178255602090920191600190910190611e00565b50611e41929150611f5e565b5090565b828054828255906000526020600020908101928215611e80579160200282015b82811115611e80578251825591602001919060010190611e65565b50611e41929150611f82565b828054828255906000526020600020908101928215611ed9579160200282015b82811115611ed95782518051611ec9918491602090910190611f9c565b5091602001919060010190611eac565b50611e41929150612009565b828054828255906000526020600020908101928215611f32579160200282015b82811115611f325782518051611f22918491602090910190611f9c565b5091602001919060010190611f05565b50611e4192915061202c565b604080516060810182526000808252602082018190529181019190915290565b61057091905b80821115611e415780546001600160a01b0319168155600101611f64565b61057091905b80821115611e415760008155600101611f88565b828054600181600116156101000203166002900490600052602060002090601f016020900481019282601f10611fdd57805160ff1916838001178555611e80565b82800160010185558215611e805791820182811115611e80578251825591602001919060010190611e65565b61057091905b80821115611e41576000612023828261204f565b5060010161200f565b61057091905b80821115611e41576000612046828261204f565b50600101612032565b50805460018160011615610100020316600290046000825580601f106120755750612093565b601f0160209004906000526020600020908101906120939190611f82565b50565b80356118578161388d565b600082601f8301126120b257600080fd5b81356120c56120c082613785565b61375e565b915081818352602084019350602081019050838560208402820111156120ea57600080fd5b60005b8381101561211657816121008882612096565b84525060209283019291909101906001016120ed565b5050505092915050565b600082601f83011261213157600080fd5b813561213f6120c082613785565b81815260209384019390925082018360005b8381101561211657813586016121678882612276565b8452506020928301929190910190600101612151565b600082601f83011261218e57600080fd5b813561219c6120c082613785565b81815260209384019390925082018360005b8381101561211657813586016121c48882612276565b84525060209283019291909101906001016121ae565b600082601f8301126121eb57600080fd5b81356121f96120c082613785565b9150818183526020840193506020810190508385602084028201111561221e57600080fd5b60005b8381101561211657816122348882612260565b8452506020928301929190910190600101612221565b8035611857816138a1565b8051611857816138a1565b8035611857816138aa565b8051611857816138aa565b600082601f83011261228757600080fd5b81356122956120c0826137a6565b915080825260208301602083018583830111156122b157600080fd5b6122bc838284613841565b50505092915050565b600082601f8301126122d657600080fd5b81516122e46120c0826137a6565b9150808252602083016020830185838301111561230057600080fd5b6122bc83828461384d565b8035611857816138b3565b60006020828403121561232857600080fd5b60006123348484612096565b949350505050565b6000806040838503121561234f57600080fd5b600061235b8585612096565b925050602061236c85828601612260565b9150509250929050565b600080600080600060a0868803121561238e57600080fd5b853567ffffffffffffffff8111156123a557600080fd5b6123b1888289016120a1565b955050602086013567ffffffffffffffff8111156123ce57600080fd5b6123da888289016121da565b945050604086013567ffffffffffffffff8111156123f757600080fd5b6124038882890161217d565b935050606086013567ffffffffffffffff81111561242057600080fd5b61242c88828901612120565b925050608086013567ffffffffffffffff81111561244957600080fd5b61245588828901612276565b9150509295509295909350565b60006020828403121561247457600080fd5b60006123348484612255565b60006020828403121561249257600080fd5b6000612334848461226b565b6000602082840312156124b057600080fd5b815167ffffffffffffffff8111156124c757600080fd5b612334848285016122c5565b6000602082840312156124e557600080fd5b60006123348484612260565b6000806040838503121561250457600080fd5b60006125108585612260565b925050602061236c85828601612096565b6000806040838503121561253457600080fd5b60006125408585612260565b925050602061236c8582860161224a565b600080600080600060a0868803121561256957600080fd5b60006125758888612260565b95505060206125868882890161224a565b94505060406125978882890161230b565b93505060606125a888828901612260565b925050608061245588828901612260565b60006125c583836125f4565b505060200190565b6000611bec8383612796565b60006125c5838361277c565b6125ee81613819565b82525050565b6125ee816137ed565b6000612608826137e0565b61261281856137e4565b935061261d836137ce565b8060005b8381101561264b57815161263588826125b9565b9750612640836137ce565b925050600101612621565b509495945050505050565b6000612661826137e0565b61266b81856137e4565b93508360208202850161267d856137ce565b8060005b858110156126b7578484038952815161269a85826125cd565b94506126a5836137ce565b60209a909a0199925050600101612681565b5091979650505050505050565b60006126cf826137e0565b6126d981856137e4565b9350836020820285016126eb856137ce565b8060005b858110156126b7578484038952815161270885826125cd565b9450612713836137ce565b60209a909a01999250506001016126ef565b6000612730826137e0565b61273a81856137e4565b9350612745836137ce565b8060005b8381101561264b57815161275d88826125d9565b9750612768836137ce565b925050600101612749565b6125ee816137f8565b6125ee81610570565b6125ee61279182610570565b610570565b60006127a1826137e0565b6127ab81856137e4565b93506127bb81856020860161384d565b6127c481613879565b9093019392505050565b6000815460018116600081146127eb576001811461281157612850565b607f60028304166127fc81876137e4565b60ff1984168152955050602085019250612850565b6002820461281f81876137e4565b955061282a856137d4565b60005b828110156128495781548882015260019091019060200161282d565b8701945050505b505092915050565b6125ee81613820565b6125ee8161382b565b6125ee81613836565b6000612880605b836137e4565b7f476f7665726e6f72416c706861425a583a3a70726f706f73653a206f6e65206c81527f6976652070726f706f73616c207065722070726f706f7365722c20666f756e6460208201527f20616e20616c7265616479206163746976652070726f706f73616c0000000000604082015260600192915050565b6000612905603f836137e4565b7f476f7665726e6f72416c706861425a583a3a5f5f6368616e676547756172646981527f616e3a2073656e646572206d75737420626520676f7620677561726469616e00602082015260400192915050565b60006129646032836137e4565b7f476f7665726e6f72416c706861425a583a3a63616e63656c3a2070726f706f73815271195c8818589bdd99481d1a1c995cda1bdb1960721b602082015260400192915050565b60006129b8602f836137e4565b7f476f7665726e6f72416c706861425a583a3a5f5f6368616e676547756172646981526e185b8e881b9bdd08185b1b1bddd959608a1b602082015260400192915050565b6000612a09600283610b0a565b61190160f01b815260020192915050565b6000612a276032836137e4565b7f476f7665726e6f72416c706861425a583a3a63617374566f746542795369673a81527120696e76616c6964207369676e617475726560701b602082015260400192915050565b6000612a7b6039836137e4565b7f476f7665726e6f72416c706861425a583a3a63616e63656c3a2063616e6e6f7481527f2063616e63656c2065786563757465642070726f706f73616c00000000000000602082015260400192915050565b6000612ada603c836137e4565b7f476f7665726e6f72416c706861425a583a3a5f5f61636365707441646d696e3a81527f2073656e646572206d75737420626520676f7620677561726469616e00000000602082015260400192915050565b6000612b396018836137e4565b7f73657450656e64696e6741646d696e2861646472657373290000000000000000815260200192915050565b6000612b726047836137e4565b7f476f7665726e6f72416c706861425a583a3a5f71756575654f7252657665727481527f3a2070726f706f73616c20616374696f6e20616c7265616479207175657565646020820152662061742065746160c81b604082015260600192915050565b6000612be1604f836137e4565b7f476f7665726e6f72416c706861425a583a3a5f5f65786563757465536574546981527f6d656c6f636b50656e64696e6741646d696e3a2073656e646572206d7573742060208201526e31329033b7bb1033bab0b93234b0b760891b604082015260600192915050565b6000612c58602b836137e4565b7f476f7665726e6f72416c706861425a583a3a70726f706f73653a20746f6f206d81526a616e7920616374696f6e7360a81b602082015260400192915050565b6000612ca56047836137e4565b7f476f7665726e6f72416c706861425a583a3a70726f706f73653a2070726f706f81527f73616c2066756e6374696f6e20696e666f726d6174696f6e206172697479206d6020820152660d2e6dac2e8c6d60cb1b604082015260600192915050565b6000612d14604d836137e4565b7f476f7665726e6f72416c706861425a583a3a5f5f717565756553657454696d6581527f6c6f636b50656e64696e6741646d696e3a2073656e646572206d75737420626560208201526c1033b7bb1033bab0b93234b0b760991b604082015260600192915050565b6000612d89602d836137e4565b7f476f7665726e6f72416c706861425a583a3a5f63617374566f74653a20766f7481526c1a5b99c81a5cc818db1bdcd959609a1b602082015260400192915050565b6000612dd86042836137e4565b7f476f7665726e6f72416c706861425a583a3a70726f706f73653a2070726f706f81527f73657220766f7465732062656c6f772070726f706f73616c207468726573686f6020820152611b1960f21b604082015260600192915050565b6000612e426011836137e4565b706164646974696f6e206f766572666c6f7760781b815260200192915050565b6000612e6f604383610b0a565b7f454950373132446f6d61696e28737472696e67206e616d652c75696e7432353681527f20636861696e49642c6164647265737320766572696679696e67436f6e74726160208201526263742960e81b604082015260430192915050565b6000612eda602783610b0a565b7f42616c6c6f742875696e743235362070726f706f73616c49642c626f6f6c20738152667570706f72742960c81b602082015260270192915050565b6000612f236047836137e4565b7f476f7665726e6f72416c706861425a583a3a71756575653a2070726f706f736181527f6c2063616e206f6e6c792062652071756575656420696620697420697320737560208201526618d8d95959195960ca1b604082015260600192915050565b6000612f92605c836137e4565b7f476f7665726e6f72416c706861425a583a3a70726f706f73653a206f6e65206c81527f6976652070726f706f73616c207065722070726f706f7365722c20666f756e6460208201527f20616e20616c72656164792070656e64696e672070726f706f73616c00000000604082015260600192915050565b60006130176048836137e4565b7f476f7665726e6f72416c706861425a583a3a657865637574653a2070726f706f81527f73616c2063616e206f6e6c7920626520657865637574656420696620697420696020820152671cc81c5d595d595960c21b604082015260600192915050565b60006130876039836137e4565b7f476f7665726e6f72416c706861425a583a3a5f5f61626469636174653a20736581527f6e646572206d75737420626520676f7620677561726469616e00000000000000602082015260400192915050565b60006130e6602f836137e4565b7f476f7665726e6f72416c706861425a583a3a70726f706f73653a206d7573742081526e70726f7669646520616374696f6e7360881b602082015260400192915050565b60006131376030836137e4565b7f476f7665726e6f72416c706861425a583a3a5f63617374566f74653a20766f7481526f195c88185b1c9958591e481d9bdd195960821b602082015260400192915050565b6000613189602c836137e4565b7f476f7665726e6f72416c706861425a583a3a73746174653a20696e76616c696481526b081c1c9bdc1bdcd85b081a5960a21b602082015260400192915050565b805160608301906131db8482612773565b5060208201516131ee6020850182612773565b506040820151611160604085018261277c565b6125ee81613813565b6000613215826129fc565b91506132218285612785565b6020820191506132318284612785565b5060200192915050565b600061185782612e62565b600061185782612ecd565b6020810161185782846125f4565b6040810161326d82856125e5565b611bec602083018461277c565b60a0810161328882876125f4565b613295602083018661286a565b81810360408301526132a681612b2c565b905081810360608301526132ba8185612796565b9050611565608083018461277c565b6040810161326d82856125f4565b608081016132e582876125f4565b6132f2602083018661277c565b6132ff6040830185612773565b611565606083018461277c565b60a0810161331a82886125f4565b613327602083018761277c565b81810360408301526133398186612796565b9050818103606083015261334d8185612796565b905061335c608083018461277c565b9695505050505050565b60a0810161337482886125f4565b613381602083018761277c565b818103604083015261339381866127ce565b9050818103606083015261334d81856127ce565b608080825281016133b881876125fd565b905081810360208301526133cc8186612725565b905081810360408301526133e081856126c4565b9050818103606083015261335c8184612656565b60208101611857828461277c565b60808101613410828761277c565b61341d602083018661277c565b61342a604083018561277c565b61156560608301846125f4565b60608101613445828661277c565b613452602083018561277c565b6123346040830184612773565b6080810161346d828761277c565b61347a6020830186613201565b6132ff604083018561277c565b602081016118578284612858565b602081016118578284612861565b60208082528101611bec8184612796565b6020808252810161185781612873565b60208082528101611857816128f8565b6020808252810161185781612957565b60208082528101611857816129ab565b6020808252810161185781612a1a565b6020808252810161185781612a6e565b6020808252810161185781612acd565b6020808252810161185781612b65565b6020808252810161185781612bd4565b6020808252810161185781612c4b565b6020808252810161185781612c98565b6020808252810161185781612d07565b6020808252810161185781612d7c565b6020808252810161185781612dcb565b6020808252810161185781612e35565b6020808252810161185781612f16565b6020808252810161185781612f85565b602080825281016118578161300a565b602080825281016118578161307a565b60208082528101611857816130d9565b602080825281016118578161312a565b602080825281016118578161317c565b6060810161185782846131ca565b6101208101613631828c61277c565b61363e602083018b6125e5565b8181036040830152613650818a6125fd565b905081810360608301526136648189612725565b9050818103608083015261367881886126c4565b905081810360a083015261368c8187612656565b905061369b60c083018661277c565b6136a860e083018561277c565b8181036101008301526136bb8184612796565b9b9a5050505050505050505050565b61012081016136d9828c61277c565b6136e6602083018b6125f4565b6136f3604083018a61277c565b613700606083018961277c565b61370d608083018861277c565b61371a60a083018761277c565b61372760c083018661277c565b61373460e0830185612773565b613742610100830184612773565b9a9950505050505050505050565b6040810161326d828561277c565b60405181810167ffffffffffffffff8111828210171561377d57600080fd5b604052919050565b600067ffffffffffffffff82111561379c57600080fd5b5060209081020190565b600067ffffffffffffffff8211156137bd57600080fd5b506020601f91909101601f19160190565b60200190565b60009081526020902090565b5190565b90815260200190565b600061185782613807565b151590565b80610b0a81613883565b6001600160a01b031690565b60ff1690565b6000611857825b6000611857826137ed565b6000611857826137fd565b600061185782610570565b82818337506000910152565b60005b83811015613868578181015183820152602001613850565b838111156111605750506000910152565b601f01601f191690565b6008811061209357fe5b613896816137ed565b811461209357600080fd5b613896816137f8565b61389681610570565b6138968161381356fea365627a7a7231582073a6471fb12372a763f9eca23aa13b5ea94b4f774d4db02f119507588a1c25276c6578706572696d656e74616cf564736f6c63430005110040",
  "bytecodeSha1": "8c13b0837239c0b904f8add1da00b264581dda34",
  "compiler": {
    "evm_version": "istanbul",
    "optimizer": {
      "enabled": true,
      "runs": 200
    },
    "version": "0.5.17+commit.d19bba13"
  },
  "contractName": "GovernorAlphaBZX",
  "language": "Solidity",
  "natspec": {
    "methods": {
      "proposalMaxOperations()": {
        "notice": "The maximum number of actions that can be included in a proposal"
      },
      "proposalThreshold()": {
        "notice": "The number of votes required in order for a voter to become a proposer"
      },
      "quorumVotes()": {
        "notice": "The number of votes in support of a proposal required in order for a quorum to be reached and for a vote to succeed"
      },
      "votingDelay()": {
        "notice": "The delay before voting on a proposal may take place, once proposed"
      },
      "votingPeriod()": {
        "notice": "The duration of voting on a proposal, in blocks"
      }
    }
  },
  "opcodes": "PUSH1 0x80 PUSH1 0x40 MSTORE PUSH1 0x4 CALLDATASIZE LT PUSH2 0x1B7 JUMPI PUSH1 0x0 CALLDATALOAD PUSH1 0xE0 SHR DUP1 PUSH4 0x4CF088D9 GT PUSH2 0xEC JUMPI DUP1 PUSH4 0xD33219B4 GT PUSH2 0x8A JUMPI DUP1 PUSH4 0xDDF0B009 GT PUSH2 0x64 JUMPI DUP1 PUSH4 0xDDF0B009 EQ PUSH2 0x49E JUMPI DUP1 PUSH4 0xDEAAA7CC EQ PUSH2 0x4BE JUMPI DUP1 PUSH4 0xE23A9A52 EQ PUSH2 0x4D3 JUMPI DUP1 PUSH4 0xFE0D94C1 EQ PUSH2 0x500 JUMPI PUSH2 0x1B7 JUMP JUMPDEST DUP1 PUSH4 0xD33219B4 EQ PUSH2 0x454 JUMPI DUP1 PUSH4 0xDA35C664 EQ PUSH2 0x469 JUMPI DUP1 PUSH4 0xDA95691A EQ PUSH2 0x47E JUMPI PUSH2 0x1B7 JUMP JUMPDEST DUP1 PUSH4 0x91500671 GT PUSH2 0xC6 JUMPI DUP1 PUSH4 0x91500671 EQ PUSH2 0x3EA JUMPI DUP1 PUSH4 0xB58131B0 EQ PUSH2 0x40A JUMPI DUP1 PUSH4 0xB5C4F54A EQ PUSH2 0x41F JUMPI DUP1 PUSH4 0xB9A61961 EQ PUSH2 0x43F JUMPI PUSH2 0x1B7 JUMP JUMPDEST DUP1 PUSH4 0x4CF088D9 EQ PUSH2 0x39E JUMPI DUP1 PUSH4 0x760FBC13 EQ PUSH2 0x3C0 JUMPI DUP1 PUSH4 0x7BDBE4D0 EQ PUSH2 0x3D5 JUMPI PUSH2 0x1B7 JUMP JUMPDEST DUP1 PUSH4 0x24BC1A64 GT PUSH2 0x159 JUMPI DUP1 PUSH4 0x3E4F49E6 GT PUSH2 0x133 JUMPI DUP1 PUSH4 0x3E4F49E6 EQ PUSH2 0x30F JUMPI DUP1 PUSH4 0x40E58EE5 EQ PUSH2 0x33C JUMPI DUP1 PUSH4 0x452A9320 EQ PUSH2 0x35C JUMPI DUP1 PUSH4 0x4634C61F EQ PUSH2 0x37E JUMPI PUSH2 0x1B7 JUMP JUMPDEST DUP1 PUSH4 0x24BC1A64 EQ PUSH2 0x2B5 JUMPI DUP1 PUSH4 0x328DD982 EQ PUSH2 0x2CA JUMPI DUP1 PUSH4 0x3932ABB1 EQ PUSH2 0x2FA JUMPI PUSH2 0x1B7 JUMP JUMPDEST DUP1 PUSH4 0x15373E3D GT PUSH2 0x195 JUMPI DUP1 PUSH4 0x15373E3D EQ PUSH2 0x23E JUMPI DUP1 PUSH4 0x17977C61 EQ PUSH2 0x260 JUMPI DUP1 PUSH4 0x20606B70 EQ PUSH2 0x280 JUMPI DUP1 PUSH4 0x21F43E42 EQ PUSH2 0x295 JUMPI PUSH2 0x1B7 JUMP JUMPDEST DUP1 PUSH4 0x13CF08B EQ PUSH2 0x1BC JUMPI DUP1 PUSH4 0x2A251A3 EQ PUSH2 0x1FA JUMPI DUP1 PUSH4 0x6FDDE03 EQ PUSH2 0x21C JUMPI JUMPDEST PUSH1 0x0 DUP1 REVERT JUMPDEST CALLVALUE DUP1 ISZERO PUSH2 0x1C8 JUMPI PUSH1 0x0 DUP1 REVERT JUMPDEST POP PUSH2 0x1DC PUSH2 0x1D7 CALLDATASIZE PUSH1 0x4 PUSH2 0x24D3 JUMP JUMPDEST PUSH2 0x513 JUMP JUMPDEST PUSH1 0x40 MLOAD PUSH2 0x1F1 SWAP10 SWAP9 SWAP8 SWAP7 SWAP6 SWAP5 SWAP4 SWAP3 SWAP2 SWAP1 PUSH2 0x36CA JUMP JUMPDEST PUSH1 0x40 MLOAD DUP1 SWAP2 SUB SWAP1 RETURN JUMPDEST CALLVALUE DUP1 ISZERO PUSH2 0x206 JUMPI PUSH1 0x0 DUP1 REVERT JUMPDEST POP PUSH2 0x20F PUSH2 0x56C JUMP JUMPDEST PUSH1 0x40 MLOAD PUSH2 0x1F1 SWAP2 SWAP1 PUSH2 0x33F4 JUMP JUMPDEST CALLVALUE DUP1 ISZERO PUSH2 0x228 JUMPI PUSH1 0x0 DUP1 REVERT JUMPDEST POP PUSH2 0x231 PUSH2 0x573 JUMP JUMPDEST PUSH1 0x40 MLOAD PUSH2 0x1F1 SWAP2 SWAP1 PUSH2 0x34A3 JUMP JUMPDEST CALLVALUE DUP1 ISZERO PUSH2 0x24A JUMPI PUSH1 0x0 DUP1 REVERT JUMPDEST POP PUSH2 0x25E PUSH2 0x259 CALLDATASIZE PUSH1 0x4 PUSH2 0x2521 JUMP JUMPDEST PUSH2 0x5A1 JUMP JUMPDEST STOP JUMPDEST CALLVALUE DUP1 ISZERO PUSH2 0x26C JUMPI PUSH1 0x0 DUP1 REVERT JUMPDEST POP PUSH2 0x20F PUSH2 0x27B CALLDATASIZE PUSH1 0x4 PUSH2 0x2316 JUMP JUMPDEST PUSH2 0x5B0 JUMP JUMPDEST CALLVALUE DUP1 ISZERO PUSH2 0x28C JUMPI PUSH1 0x0 DUP1 REVERT JUMPDEST POP PUSH2 0x20F PUSH2 0x5C2 JUMP JUMPDEST CALLVALUE DUP1 ISZERO PUSH2 0x2A1 JUMPI PUSH1 0x0 DUP1 REVERT JUMPDEST POP PUSH2 0x25E PUSH2 0x2B0 CALLDATASIZE PUSH1 0x4 PUSH2 0x233C JUMP JUMPDEST PUSH2 0x5D9 JUMP JUMPDEST CALLVALUE DUP1 ISZERO PUSH2 0x2C1 JUMPI PUSH1 0x0 DUP1 REVERT JUMPDEST POP PUSH2 0x20F PUSH2 0x6E1 JUMP JUMPDEST CALLVALUE DUP1 ISZERO PUSH2 0x2D6 JUMPI PUSH1 0x0 DUP1 REVERT JUMPDEST POP PUSH2 0x2EA PUSH2 0x2E5 CALLDATASIZE PUSH1 0x4 PUSH2 0x24D3 JUMP JUMPDEST PUSH2 0x6F0 JUMP JUMPDEST PUSH1 0x40 MLOAD PUSH2 0x1F1 SWAP5 SWAP4 SWAP3 SWAP2 SWAP1 PUSH2 0x33A7 JUMP JUMPDEST CALLVALUE DUP1 ISZERO PUSH2 0x306 JUMPI PUSH1 0x0 DUP1 REVERT JUMPDEST POP PUSH2 0x20F PUSH2 0x97F JUMP JUMPDEST CALLVALUE DUP1 ISZERO PUSH2 0x31B JUMPI PUSH1 0x0 DUP1 REVERT JUMPDEST POP PUSH2 0x32F PUSH2 0x32A CALLDATASIZE PUSH1 0x4 PUSH2 0x24D3 JUMP JUMPDEST PUSH2 0x984 JUMP JUMPDEST PUSH1 0x40 MLOAD PUSH2 0x1F1 SWAP2 SWAP1 PUSH2 0x3495 JUMP JUMPDEST CALLVALUE DUP1 ISZERO PUSH2 0x348 JUMPI PUSH1 0x0 DUP1 REVERT JUMPDEST POP PUSH2 0x25E PUSH2 0x357 CALLDATASIZE PUSH1 0x4 PUSH2 0x24D3 JUMP JUMPDEST PUSH2 0xB0F JUMP JUMPDEST CALLVALUE DUP1 ISZERO PUSH2 0x368 JUMPI PUSH1 0x0 DUP1 REVERT JUMPDEST POP PUSH2 0x371 PUSH2 0xD6B JUMP JUMPDEST PUSH1 0x40 MLOAD PUSH2 0x1F1 SWAP2 SWAP1 PUSH2 0x3251 JUMP JUMPDEST CALLVALUE DUP1 ISZERO PUSH2 0x38A JUMPI PUSH1 0x0 DUP1 REVERT JUMPDEST POP PUSH2 0x25E PUSH2 0x399 CALLDATASIZE PUSH1 0x4 PUSH2 0x2551 JUMP JUMPDEST PUSH2 0xD7A JUMP JUMPDEST CALLVALUE DUP1 ISZERO PUSH2 0x3AA JUMPI PUSH1 0x0 DUP1 REVERT JUMPDEST POP PUSH2 0x3B3 PUSH2 0xF0C JUMP JUMPDEST PUSH1 0x40 MLOAD PUSH2 0x1F1 SWAP2 SWAP1 PUSH2 0x3487 JUMP JUMPDEST CALLVALUE DUP1 ISZERO PUSH2 0x3CC JUMPI PUSH1 0x0 DUP1 REVERT JUMPDEST POP PUSH2 0x25E PUSH2 0xF1B JUMP JUMPDEST CALLVALUE DUP1 ISZERO PUSH2 0x3E1 JUMPI PUSH1 0x0 DUP1 REVERT JUMPDEST POP PUSH2 0x20F PUSH2 0xF57 JUMP JUMPDEST CALLVALUE DUP1 ISZERO PUSH2 0x3F6 JUMPI PUSH1 0x0 DUP1 REVERT JUMPDEST POP PUSH2 0x25E PUSH2 0x405 CALLDATASIZE PUSH1 0x4 PUSH2 0x233C JUMP JUMPDEST PUSH2 0xF5C JUMP JUMPDEST CALLVALUE DUP1 ISZERO PUSH2 0x416 JUMPI PUSH1 0x0 DUP1 REVERT JUMPDEST POP PUSH2 0x20F PUSH2 0x1052 JUMP JUMPDEST CALLVALUE DUP1 ISZERO PUSH2 0x42B JUMPI PUSH1 0x0 DUP1 REVERT JUMPDEST POP PUSH2 0x25E PUSH2 0x43A CALLDATASIZE PUSH1 0x4 PUSH2 0x2316 JUMP JUMPDEST PUSH2 0x1061 JUMP JUMPDEST CALLVALUE DUP1 ISZERO PUSH2 0x44B JUMPI PUSH1 0x0 DUP1 REVERT JUMPDEST POP PUSH2 0x25E PUSH2 0x10D3 JUMP JUMPDEST CALLVALUE DUP1 ISZERO PUSH2 0x460 JUMPI PUSH1 0x0 DUP1 REVERT JUMPDEST POP PUSH2 0x3B3 PUSH2 0x1166 JUMP JUMPDEST CALLVALUE DUP1 ISZERO PUSH2 0x475 JUMPI PUSH1 0x0 DUP1 REVERT JUMPDEST POP PUSH2 0x20F PUSH2 0x117E JUMP JUMPDEST CALLVALUE DUP1 ISZERO PUSH2 0x48A JUMPI PUSH1 0x0 DUP1 REVERT JUMPDEST POP PUSH2 0x20F PUSH2 0x499 CALLDATASIZE PUSH1 0x4 PUSH2 0x2376 JUMP JUMPDEST PUSH2 0x1184 JUMP JUMPDEST CALLVALUE DUP1 ISZERO PUSH2 0x4AA JUMPI PUSH1 0x0 DUP1 REVERT JUMPDEST POP PUSH2 0x25E PUSH2 0x4B9 CALLDATASIZE PUSH1 0x4 PUSH2 0x24D3 JUMP JUMPDEST PUSH2 0x156E JUMP JUMPDEST CALLVALUE DUP1 ISZERO PUSH2 0x4CA JUMPI PUSH1 0x0 DUP1 REVERT JUMPDEST POP PUSH2 0x20F PUSH2 0x17ED JUMP JUMPDEST CALLVALUE DUP1 ISZERO PUSH2 0x4DF JUMPI PUSH1 0x0 DUP1 REVERT JUMPDEST POP PUSH2 0x4F3 PUSH2 0x4EE CALLDATASIZE PUSH1 0x4 PUSH2 0x24F1 JUMP JUMPDEST PUSH2 0x17F9 JUMP JUMPDEST PUSH1 0x40 MLOAD PUSH2 0x1F1 SWAP2 SWAP1 PUSH2 0x3614 JUMP JUMPDEST PUSH2 0x25E PUSH2 0x50E CALLDATASIZE PUSH1 0x4 PUSH2 0x24D3 JUMP JUMPDEST PUSH2 0x185D JUMP JUMPDEST PUSH1 0x3 PUSH1 0x20 MSTORE PUSH1 0x0 SWAP1 DUP2 MSTORE PUSH1 0x40 SWAP1 KECCAK256 DUP1 SLOAD PUSH1 0x1 DUP3 ADD SLOAD PUSH1 0x2 DUP4 ADD SLOAD PUSH1 0x7 DUP5 ADD SLOAD PUSH1 0x8 DUP6 ADD SLOAD PUSH1 0x9 DUP7 ADD SLOAD PUSH1 0xA DUP8 ADD SLOAD PUSH1 0xB SWAP1 SWAP8 ADD SLOAD SWAP6 SWAP7 PUSH1 0x1 PUSH1 0x1 PUSH1 0xA0 SHL SUB SWAP1 SWAP6 AND SWAP6 SWAP4 SWAP5 SWAP3 SWAP4 SWAP2 SWAP3 SWAP1 SWAP2 PUSH1 0xFF DUP1 DUP3 AND SWAP2 PUSH2 0x100 SWAP1 DIV AND DUP10 JUMP JUMPDEST PUSH2 0x4380 JUMPDEST SWAP1 JUMP JUMPDEST PUSH1 0x40 MLOAD DUP1 PUSH1 0x40 ADD PUSH1 0x40 MSTORE DUP1 PUSH1 0x12 DUP2 MSTORE PUSH1 0x20 ADD PUSH18 0x625A7820476F7665726E6F7220416C706861 PUSH1 0x70 SHL DUP2 MSTORE POP DUP2 JUMP JUMPDEST PUSH2 0x5AC CALLER DUP4 DUP4 PUSH2 0x1A2E JUMP JUMPDEST POP POP JUMP JUMPDEST PUSH1 0x4 PUSH1 0x20 MSTORE PUSH1 0x0 SWAP1 DUP2 MSTORE PUSH1 0x40 SWAP1 KECCAK256 SLOAD DUP2 JUMP JUMPDEST PUSH1 0x40 MLOAD PUSH2 0x5CE SWAP1 PUSH2 0x323B JUMP JUMPDEST PUSH1 0x40 MLOAD DUP1 SWAP2 SUB SWAP1 KECCAK256 DUP2 JUMP JUMPDEST PUSH1 0x1 SLOAD PUSH1 0x1 PUSH1 0x1 PUSH1 0xA0 SHL SUB AND CALLER EQ PUSH2 0x60C JUMPI PUSH1 0x40 MLOAD PUSH3 0x461BCD PUSH1 0xE5 SHL DUP2 MSTORE PUSH1 0x4 ADD PUSH2 0x603 SWAP1 PUSH2 0x3534 JUMP JUMPDEST PUSH1 0x40 MLOAD DUP1 SWAP2 SUB SWAP1 REVERT JUMPDEST PUSH20 0xBB536EB24FB89B544D4BD9E9F1F34D9FD902BB96 PUSH1 0x1 PUSH1 0x1 PUSH1 0xA0 SHL SUB AND PUSH4 0x825F38F PUSH20 0xBB536EB24FB89B544D4BD9E9F1F34D9FD902BB96 PUSH1 0x0 DUP6 PUSH1 0x40 MLOAD PUSH1 0x20 ADD PUSH2 0x657 SWAP2 SWAP1 PUSH2 0x3251 JUMP JUMPDEST PUSH1 0x40 MLOAD PUSH1 0x20 DUP2 DUP4 SUB SUB DUP2 MSTORE SWAP1 PUSH1 0x40 MSTORE DUP6 PUSH1 0x40 MLOAD DUP6 PUSH4 0xFFFFFFFF AND PUSH1 0xE0 SHL DUP2 MSTORE PUSH1 0x4 ADD PUSH2 0x686 SWAP5 SWAP4 SWAP3 SWAP2 SWAP1 PUSH2 0x327A JUMP JUMPDEST PUSH1 0x0 PUSH1 0x40 MLOAD DUP1 DUP4 SUB DUP2 PUSH1 0x0 DUP8 DUP1 EXTCODESIZE ISZERO DUP1 ISZERO PUSH2 0x6A0 JUMPI PUSH1 0x0 DUP1 REVERT JUMPDEST POP GAS CALL ISZERO DUP1 ISZERO PUSH2 0x6B4 JUMPI RETURNDATASIZE PUSH1 0x0 DUP1 RETURNDATACOPY RETURNDATASIZE PUSH1 0x0 REVERT JUMPDEST POP POP POP POP PUSH1 0x40 MLOAD RETURNDATASIZE PUSH1 0x0 DUP3 RETURNDATACOPY PUSH1 0x1F RETURNDATASIZE SWAP1 DUP2 ADD PUSH1 0x1F NOT AND DUP3 ADD PUSH1 0x40 MSTORE PUSH2 0x6DC SWAP2 SWAP1 DUP2 ADD SWAP1 PUSH2 0x249E JUMP JUMPDEST POP POP POP JUMP JUMPDEST PUSH11 0x22147079AE94A4B6000000 SWAP1 JUMP JUMPDEST PUSH1 0x60 DUP1 PUSH1 0x60 DUP1 PUSH1 0x0 PUSH1 0x3 PUSH1 0x0 DUP8 DUP2 MSTORE PUSH1 0x20 ADD SWAP1 DUP2 MSTORE PUSH1 0x20 ADD PUSH1 0x0 KECCAK256 SWAP1 POP DUP1 PUSH1 0x3 ADD DUP2 PUSH1 0x4 ADD DUP3 PUSH1 0x5 ADD DUP4 PUSH1 0x6 ADD DUP4 DUP1 SLOAD DUP1 PUSH1 0x20 MUL PUSH1 0x20 ADD PUSH1 0x40 MLOAD SWAP1 DUP2 ADD PUSH1 0x40 MSTORE DUP1 SWAP3 SWAP2 SWAP1 DUP2 DUP2 MSTORE PUSH1 0x20 ADD DUP3 DUP1 SLOAD DUP1 ISZERO PUSH2 0x772 JUMPI PUSH1 0x20 MUL DUP3 ADD SWAP2 SWAP1 PUSH1 0x0 MSTORE PUSH1 0x20 PUSH1 0x0 KECCAK256 SWAP1 JUMPDEST DUP2 SLOAD PUSH1 0x1 PUSH1 0x1 PUSH1 0xA0 SHL SUB AND DUP2 MSTORE PUSH1 0x1 SWAP1 SWAP2 ADD SWAP1 PUSH1 0x20 ADD DUP1 DUP4 GT PUSH2 0x754 JUMPI JUMPDEST POP POP POP POP POP SWAP4 POP DUP3 DUP1 SLOAD DUP1 PUSH1 0x20 MUL PUSH1 0x20 ADD PUSH1 0x40 MLOAD SWAP1 DUP2 ADD PUSH1 0x40 MSTORE DUP1 SWAP3 SWAP2 SWAP1 DUP2 DUP2 MSTORE PUSH1 0x20 ADD DUP3 DUP1 SLOAD DUP1 ISZERO PUSH2 0x7C4 JUMPI PUSH1 0x20 MUL DUP3 ADD SWAP2 SWAP1 PUSH1 0x0 MSTORE PUSH1 0x20 PUSH1 0x0 KECCAK256 SWAP1 JUMPDEST DUP2 SLOAD DUP2 MSTORE PUSH1 0x20 ADD SWAP1 PUSH1 0x1 ADD SWAP1 DUP1 DUP4 GT PUSH2 0x7B0 JUMPI JUMPDEST POP POP POP POP POP SWAP3 POP DUP2 DUP1 SLOAD DUP1 PUSH1 0x20 MUL PUSH1 0x20 ADD PUSH1 0x40 MLOAD SWAP1 DUP2 ADD PUSH1 0x40 MSTORE DUP1 SWAP3 SWAP2 SWAP1 DUP2 DUP2 MSTORE PUSH1 0x20 ADD PUSH1 0x0 SWAP1 JUMPDEST DUP3 DUP3 LT ISZERO PUSH2 0x897 JUMPI PUSH1 0x0 DUP5 DUP2 MSTORE PUSH1 0x20 SWAP1 DUP2 SWAP1 KECCAK256 DUP4 ADD DUP1 SLOAD PUSH1 0x40 DUP1 MLOAD PUSH1 0x1F PUSH1 0x2 PUSH1 0x0 NOT PUSH2 0x100 PUSH1 0x1 DUP8 AND ISZERO MUL ADD SWAP1 SWAP5 AND SWAP4 SWAP1 SWAP4 DIV SWAP3 DUP4 ADD DUP6 SWAP1 DIV DUP6 MUL DUP2 ADD DUP6 ADD SWAP1 SWAP2 MSTORE DUP2 DUP2 MSTORE SWAP3 DUP4 ADD DUP3 DUP3 DUP1 ISZERO PUSH2 0x883 JUMPI DUP1 PUSH1 0x1F LT PUSH2 0x858 JUMPI PUSH2 0x100 DUP1 DUP4 SLOAD DIV MUL DUP4 MSTORE SWAP2 PUSH1 0x20 ADD SWAP2 PUSH2 0x883 JUMP JUMPDEST DUP3 ADD SWAP2 SWAP1 PUSH1 0x0 MSTORE PUSH1 0x20 PUSH1 0x0 KECCAK256 SWAP1 JUMPDEST DUP2 SLOAD DUP2 MSTORE SWAP1 PUSH1 0x1 ADD SWAP1 PUSH1 0x20 ADD DUP1 DUP4 GT PUSH2 0x866 JUMPI DUP3 SWAP1 SUB PUSH1 0x1F AND DUP3 ADD SWAP2 JUMPDEST POP POP POP POP POP DUP2 MSTORE PUSH1 0x20 ADD SWAP1 PUSH1 0x1 ADD SWAP1 PUSH2 0x7EC JUMP JUMPDEST POP POP POP POP SWAP2 POP DUP1 DUP1 SLOAD DUP1 PUSH1 0x20 MUL PUSH1 0x20 ADD PUSH1 0x40 MLOAD SWAP1 DUP2 ADD PUSH1 0x40 MSTORE DUP1 SWAP3 SWAP2 SWAP1 DUP2 DUP2 MSTORE PUSH1 0x20 ADD PUSH1 0x0 SWAP1 JUMPDEST DUP3 DUP3 LT ISZERO PUSH2 0x969 JUMPI PUSH1 0x0 DUP5 DUP2 MSTORE PUSH1 0x20 SWAP1 DUP2 SWAP1 KECCAK256 DUP4 ADD DUP1 SLOAD PUSH1 0x40 DUP1 MLOAD PUSH1 0x1F PUSH1 0x2 PUSH1 0x0 NOT PUSH2 0x100 PUSH1 0x1 DUP8 AND ISZERO MUL ADD SWAP1 SWAP5 AND SWAP4 SWAP1 SWAP4 DIV SWAP3 DUP4 ADD DUP6 SWAP1 DIV DUP6 MUL DUP2 ADD DUP6 ADD SWAP1 SWAP2 MSTORE DUP2 DUP2 MSTORE SWAP3 DUP4 ADD DUP3 DUP3 DUP1 ISZERO PUSH2 0x955 JUMPI DUP1 PUSH1 0x1F LT PUSH2 0x92A JUMPI PUSH2 0x100 DUP1 DUP4 SLOAD DIV MUL DUP4 MSTORE SWAP2 PUSH1 0x20 ADD SWAP2 PUSH2 0x955 JUMP JUMPDEST DUP3 ADD SWAP2 SWAP1 PUSH1 0x0 MSTORE PUSH1 0x20 PUSH1 0x0 KECCAK256 SWAP1 JUMPDEST DUP2 SLOAD DUP2 MSTORE SWAP1 PUSH1 0x1 ADD SWAP1 PUSH1 0x20 ADD DUP1 DUP4 GT PUSH2 0x938 JUMPI DUP3 SWAP1 SUB PUSH1 0x1F AND DUP3 ADD SWAP2 JUMPDEST POP POP POP POP POP DUP2 MSTORE PUSH1 0x20 ADD SWAP1 PUSH1 0x1 ADD SWAP1 PUSH2 0x8BE JUMP JUMPDEST POP POP POP POP SWAP1 POP SWAP5 POP SWAP5 POP SWAP5 POP SWAP5 POP POP SWAP2 SWAP4 POP SWAP2 SWAP4 JUMP JUMPDEST PUSH1 0x1 SWAP1 JUMP JUMPDEST PUSH1 0x0 DUP2 PUSH1 0x2 SLOAD LT ISZERO DUP1 ISZERO PUSH2 0x998 JUMPI POP PUSH1 0x0 DUP3 GT JUMPDEST PUSH2 0x9B4 JUMPI PUSH1 0x40 MLOAD PUSH3 0x461BCD PUSH1 0xE5 SHL DUP2 MSTORE PUSH1 0x4 ADD PUSH2 0x603 SWAP1 PUSH2 0x3604 JUMP JUMPDEST PUSH1 0x0 DUP3 DUP2 MSTORE PUSH1 0x3 PUSH1 0x20 MSTORE PUSH1 0x40 SWAP1 KECCAK256 PUSH1 0xB DUP2 ADD SLOAD PUSH1 0xFF AND ISZERO PUSH2 0x9D9 JUMPI PUSH1 0x2 SWAP2 POP POP PUSH2 0xB0A JUMP JUMPDEST DUP1 PUSH1 0x7 ADD SLOAD NUMBER GT PUSH2 0x9EE JUMPI PUSH1 0x0 SWAP2 POP POP PUSH2 0xB0A JUMP JUMPDEST DUP1 PUSH1 0x8 ADD SLOAD NUMBER GT PUSH2 0xA03 JUMPI PUSH1 0x1 SWAP2 POP POP PUSH2 0xB0A JUMP JUMPDEST DUP1 PUSH1 0xA ADD SLOAD DUP2 PUSH1 0x9 ADD SLOAD GT ISZERO DUP1 PUSH2 0xA24 JUMPI POP PUSH2 0xA1D PUSH2 0x6E1 JUMP JUMPDEST DUP2 PUSH1 0x9 ADD SLOAD LT JUMPDEST ISZERO PUSH2 0xA33 JUMPI PUSH1 0x3 SWAP2 POP POP PUSH2 0xB0A JUMP JUMPDEST PUSH1 0x2 DUP2 ADD SLOAD PUSH2 0xA46 JUMPI PUSH1 0x4 SWAP2 POP POP PUSH2 0xB0A JUMP JUMPDEST PUSH1 0xB DUP2 ADD SLOAD PUSH2 0x100 SWAP1 DIV PUSH1 0xFF AND ISZERO PUSH2 0xA62 JUMPI PUSH1 0x7 SWAP2 POP POP PUSH2 0xB0A JUMP JUMPDEST PUSH2 0xAF4 DUP2 PUSH1 0x2 ADD SLOAD PUSH20 0xBB536EB24FB89B544D4BD9E9F1F34D9FD902BB96 PUSH1 0x1 PUSH1 0x1 PUSH1 0xA0 SHL SUB AND PUSH4 0xC1A287E2 PUSH1 0x40 MLOAD DUP2 PUSH4 0xFFFFFFFF AND PUSH1 0xE0 SHL DUP2 MSTORE PUSH1 0x4 ADD PUSH1 0x20 PUSH1 0x40 MLOAD DUP1 DUP4 SUB DUP2 DUP7 DUP1 EXTCODESIZE ISZERO DUP1 ISZERO PUSH2 0xAB7 JUMPI PUSH1 0x0 DUP1 REVERT JUMPDEST POP GAS STATICCALL ISZERO DUP1 ISZERO PUSH2 0xACB JUMPI RETURNDATASIZE PUSH1 0x0 DUP1 RETURNDATACOPY RETURNDATASIZE PUSH1 0x0 REVERT JUMPDEST POP POP POP POP PUSH1 0x40 MLOAD RETURNDATASIZE PUSH1 0x1F NOT PUSH1 0x1F DUP3 ADD AND DUP3 ADD DUP1 PUSH1 0x40 MSTORE POP PUSH2 0xAEF SWAP2 SWAP1 DUP2 ADD SWAP1 PUSH2 0x2480 JUMP JUMPDEST PUSH2 0x1BC7 JUMP JUMPDEST TIMESTAMP LT PUSH2 0xB04 JUMPI PUSH1 0x6 SWAP2 POP POP PUSH2 0xB0A JUMP JUMPDEST PUSH1 0x5 SWAP2 POP POP JUMPDEST SWAP2 SWAP1 POP JUMP JUMPDEST PUSH1 0x0 PUSH2 0xB1A DUP3 PUSH2 0x984 JUMP JUMPDEST SWAP1 POP PUSH1 0x7 DUP2 PUSH1 0x7 DUP2 GT ISZERO PUSH2 0xB2A JUMPI INVALID JUMPDEST EQ ISZERO PUSH2 0xB48 JUMPI PUSH1 0x40 MLOAD PUSH3 0x461BCD PUSH1 0xE5 SHL DUP2 MSTORE PUSH1 0x4 ADD PUSH2 0x603 SWAP1 PUSH2 0x3504 JUMP JUMPDEST PUSH1 0x0 DUP3 DUP2 MSTORE PUSH1 0x3 PUSH1 0x20 MSTORE PUSH1 0x40 SWAP1 KECCAK256 PUSH1 0x1 SLOAD PUSH1 0x1 PUSH1 0x1 PUSH1 0xA0 SHL SUB AND CALLER EQ DUP1 PUSH2 0xBFA JUMPI POP PUSH2 0xB72 PUSH2 0x1052 JUMP JUMPDEST PUSH1 0x0 SLOAD PUSH1 0x1 DUP4 ADD SLOAD PUSH1 0x40 MLOAD PUSH4 0xABBD3AB1 PUSH1 0xE0 SHL DUP2 MSTORE PUSH1 0x1 PUSH1 0x1 PUSH1 0xA0 SHL SUB SWAP3 DUP4 AND SWAP3 PUSH4 0xABBD3AB1 SWAP3 PUSH2 0xBA8 SWAP3 SWAP2 AND SWAP1 PUSH1 0x4 ADD PUSH2 0x3251 JUMP JUMPDEST PUSH1 0x20 PUSH1 0x40 MLOAD DUP1 DUP4 SUB DUP2 DUP7 DUP1 EXTCODESIZE ISZERO DUP1 ISZERO PUSH2 0xBC0 JUMPI PUSH1 0x0 DUP1 REVERT JUMPDEST POP GAS STATICCALL ISZERO DUP1 ISZERO PUSH2 0xBD4 JUMPI RETURNDATASIZE PUSH1 0x0 DUP1 RETURNDATACOPY RETURNDATASIZE PUSH1 0x0 REVERT JUMPDEST POP POP POP POP PUSH1 0x40 MLOAD RETURNDATASIZE PUSH1 0x1F NOT PUSH1 0x1F DUP3 ADD AND DUP3 ADD DUP1 PUSH1 0x40 MSTORE POP PUSH2 0xBF8 SWAP2 SWAP1 DUP2 ADD SWAP1 PUSH2 0x2480 JUMP JUMPDEST LT JUMPDEST PUSH2 0xC16 JUMPI PUSH1 0x40 MLOAD PUSH3 0x461BCD PUSH1 0xE5 SHL DUP2 MSTORE PUSH1 0x4 ADD PUSH2 0x603 SWAP1 PUSH2 0x34D4 JUMP JUMPDEST PUSH1 0xB DUP2 ADD DUP1 SLOAD PUSH1 0xFF NOT AND PUSH1 0x1 OR SWAP1 SSTORE PUSH1 0x0 JUMPDEST PUSH1 0x3 DUP3 ADD SLOAD DUP2 LT ISZERO PUSH2 0xD2E JUMPI PUSH20 0xBB536EB24FB89B544D4BD9E9F1F34D9FD902BB96 PUSH1 0x1 PUSH1 0x1 PUSH1 0xA0 SHL SUB AND PUSH4 0x591FCDFE DUP4 PUSH1 0x3 ADD DUP4 DUP2 SLOAD DUP2 LT PUSH2 0xC66 JUMPI INVALID JUMPDEST PUSH1 0x0 SWAP2 DUP3 MSTORE PUSH1 0x20 SWAP1 SWAP2 KECCAK256 ADD SLOAD PUSH1 0x4 DUP6 ADD DUP1 SLOAD PUSH1 0x1 PUSH1 0x1 PUSH1 0xA0 SHL SUB SWAP1 SWAP3 AND SWAP2 DUP6 SWAP1 DUP2 LT PUSH2 0xC8E JUMPI INVALID JUMPDEST SWAP1 PUSH1 0x0 MSTORE PUSH1 0x20 PUSH1 0x0 KECCAK256 ADD SLOAD DUP6 PUSH1 0x5 ADD DUP6 DUP2 SLOAD DUP2 LT PUSH2 0xCA8 JUMPI INVALID JUMPDEST SWAP1 PUSH1 0x0 MSTORE PUSH1 0x20 PUSH1 0x0 KECCAK256 ADD DUP7 PUSH1 0x6 ADD DUP7 DUP2 SLOAD DUP2 LT PUSH2 0xCC1 JUMPI INVALID JUMPDEST SWAP1 PUSH1 0x0 MSTORE PUSH1 0x20 PUSH1 0x0 KECCAK256 ADD DUP8 PUSH1 0x2 ADD SLOAD PUSH1 0x40 MLOAD DUP7 PUSH4 0xFFFFFFFF AND PUSH1 0xE0 SHL DUP2 MSTORE PUSH1 0x4 ADD PUSH2 0xCF0 SWAP6 SWAP5 SWAP4 SWAP3 SWAP2 SWAP1 PUSH2 0x3366 JUMP JUMPDEST PUSH1 0x0 PUSH1 0x40 MLOAD DUP1 DUP4 SUB DUP2 PUSH1 0x0 DUP8 DUP1 EXTCODESIZE ISZERO DUP1 ISZERO PUSH2 0xD0A JUMPI PUSH1 0x0 DUP1 REVERT JUMPDEST POP GAS CALL ISZERO DUP1 ISZERO PUSH2 0xD1E JUMPI RETURNDATASIZE PUSH1 0x0 DUP1 RETURNDATACOPY RETURNDATASIZE PUSH1 0x0 REVERT JUMPDEST POP POP PUSH1 0x1 SWAP1 SWAP3 ADD SWAP2 POP PUSH2 0xC28 SWAP1 POP JUMP JUMPDEST POP PUSH32 0x789CF55BE980739DAD1D0699B93B58E806B51C9D96619BFA8FE0A28ABAA7B30C DUP4 PUSH1 0x40 MLOAD PUSH2 0xD5E SWAP2 SWAP1 PUSH2 0x33F4 JUMP JUMPDEST PUSH1 0x40 MLOAD DUP1 SWAP2 SUB SWAP1 LOG1 POP POP POP JUMP JUMPDEST PUSH1 0x1 SLOAD PUSH1 0x1 PUSH1 0x1 PUSH1 0xA0 SHL SUB AND DUP2 JUMP JUMPDEST PUSH1 0x0 PUSH1 0x40 MLOAD PUSH2 0xD88 SWAP1 PUSH2 0x323B JUMP JUMPDEST PUSH1 0x40 DUP1 MLOAD SWAP2 DUP3 SWAP1 SUB DUP3 KECCAK256 DUP3 DUP3 ADD SWAP1 SWAP2 MSTORE PUSH1 0x12 DUP3 MSTORE PUSH18 0x625A7820476F7665726E6F7220416C706861 PUSH1 0x70 SHL PUSH1 0x20 SWAP1 SWAP3 ADD SWAP2 SWAP1 SWAP2 MSTORE PUSH32 0xF93E98D4EA58E753CF841F4F43E67F94FB5EA5F33843216274CFD273A0AA513 PUSH2 0xDE4 PUSH2 0x1BF3 JUMP JUMPDEST ADDRESS PUSH1 0x40 MLOAD PUSH1 0x20 ADD PUSH2 0xDF8 SWAP5 SWAP4 SWAP3 SWAP2 SWAP1 PUSH2 0x3402 JUMP JUMPDEST PUSH1 0x40 MLOAD PUSH1 0x20 DUP2 DUP4 SUB SUB DUP2 MSTORE SWAP1 PUSH1 0x40 MSTORE DUP1 MLOAD SWAP1 PUSH1 0x20 ADD KECCAK256 SWAP1 POP PUSH1 0x0 PUSH1 0x40 MLOAD PUSH2 0xE1E SWAP1 PUSH2 0x3246 JUMP JUMPDEST PUSH1 0x40 MLOAD SWAP1 DUP2 SWAP1 SUB DUP2 KECCAK256 PUSH2 0xE37 SWAP2 DUP10 SWAP1 DUP10 SWAP1 PUSH1 0x20 ADD PUSH2 0x3437 JUMP JUMPDEST PUSH1 0x40 MLOAD PUSH1 0x20 DUP2 DUP4 SUB SUB DUP2 MSTORE SWAP1 PUSH1 0x40 MSTORE DUP1 MLOAD SWAP1 PUSH1 0x20 ADD KECCAK256 SWAP1 POP PUSH1 0x0 DUP3 DUP3 PUSH1 0x40 MLOAD PUSH1 0x20 ADD PUSH2 0xE64 SWAP3 SWAP2 SWAP1 PUSH2 0x320A JUMP JUMPDEST PUSH1 0x40 MLOAD PUSH1 0x20 DUP2 DUP4 SUB SUB DUP2 MSTORE SWAP1 PUSH1 0x40 MSTORE DUP1 MLOAD SWAP1 PUSH1 0x20 ADD KECCAK256 SWAP1 POP PUSH1 0x0 PUSH1 0x1 DUP3 DUP9 DUP9 DUP9 PUSH1 0x40 MLOAD PUSH1 0x0 DUP2 MSTORE PUSH1 0x20 ADD PUSH1 0x40 MSTORE PUSH1 0x40 MLOAD PUSH2 0xEA1 SWAP5 SWAP4 SWAP3 SWAP2 SWAP1 PUSH2 0x345F JUMP JUMPDEST PUSH1 0x20 PUSH1 0x40 MLOAD PUSH1 0x20 DUP2 SUB SWAP1 DUP1 DUP5 SUB SWAP1 DUP6 GAS STATICCALL ISZERO DUP1 ISZERO PUSH2 0xEC3 JUMPI RETURNDATASIZE PUSH1 0x0 DUP1 RETURNDATACOPY RETURNDATASIZE PUSH1 0x0 REVERT JUMPDEST POP POP PUSH1 0x40 MLOAD PUSH1 0x1F NOT ADD MLOAD SWAP2 POP POP PUSH1 0x1 PUSH1 0x1 PUSH1 0xA0 SHL SUB DUP2 AND PUSH2 0xEF6 JUMPI PUSH1 0x40 MLOAD PUSH3 0x461BCD PUSH1 0xE5 SHL DUP2 MSTORE PUSH1 0x4 ADD PUSH2 0x603 SWAP1 PUSH2 0x34F4 JUMP JUMPDEST PUSH2 0xF01 DUP2 DUP11 DUP11 PUSH2 0x1A2E JUMP JUMPDEST POP POP POP POP POP POP POP POP POP JUMP JUMPDEST PUSH1 0x0 SLOAD PUSH1 0x1 PUSH1 0x1 PUSH1 0xA0 SHL SUB AND DUP2 JUMP JUMPDEST PUSH1 0x1 SLOAD PUSH1 0x1 PUSH1 0x1 PUSH1 0xA0 SHL SUB AND CALLER EQ PUSH2 0xF45 JUMPI PUSH1 0x40 MLOAD PUSH3 0x461BCD PUSH1 0xE5 SHL DUP2 MSTORE PUSH1 0x4 ADD PUSH2 0x603 SWAP1 PUSH2 0x35D4 JUMP JUMPDEST PUSH1 0x1 DUP1 SLOAD PUSH1 0x1 PUSH1 0x1 PUSH1 0xA0 SHL SUB NOT AND SWAP1 SSTORE JUMP JUMPDEST PUSH1 0xA SWAP1 JUMP JUMPDEST PUSH1 0x1 SLOAD PUSH1 0x1 PUSH1 0x1 PUSH1 0xA0 SHL SUB AND CALLER EQ PUSH2 0xF86 JUMPI PUSH1 0x40 MLOAD PUSH3 0x461BCD PUSH1 0xE5 SHL DUP2 MSTORE PUSH1 0x4 ADD PUSH2 0x603 SWAP1 PUSH2 0x3564 JUMP JUMPDEST PUSH20 0xBB536EB24FB89B544D4BD9E9F1F34D9FD902BB96 PUSH1 0x1 PUSH1 0x1 PUSH1 0xA0 SHL SUB AND PUSH4 0x3A66F901 PUSH20 0xBB536EB24FB89B544D4BD9E9F1F34D9FD902BB96 PUSH1 0x0 DUP6 PUSH1 0x40 MLOAD PUSH1 0x20 ADD PUSH2 0xFD1 SWAP2 SWAP1 PUSH2 0x3251 JUMP JUMPDEST PUSH1 0x40 MLOAD PUSH1 0x20 DUP2 DUP4 SUB SUB DUP2 MSTORE SWAP1 PUSH1 0x40 MSTORE DUP6 PUSH1 0x40 MLOAD DUP6 PUSH4 0xFFFFFFFF AND PUSH1 0xE0 SHL DUP2 MSTORE PUSH1 0x4 ADD PUSH2 0x1000 SWAP5 SWAP4 SWAP3 SWAP2 SWAP1 PUSH2 0x327A JUMP JUMPDEST PUSH1 0x20 PUSH1 0x40 MLOAD DUP1 DUP4 SUB DUP2 PUSH1 0x0 DUP8 DUP1 EXTCODESIZE ISZERO DUP1 ISZERO PUSH2 0x101A JUMPI PUSH1 0x0 DUP1 REVERT JUMPDEST POP GAS CALL ISZERO DUP1 ISZERO PUSH2 0x102E JUMPI RETURNDATASIZE PUSH1 0x0 DUP1 RETURNDATACOPY RETURNDATASIZE PUSH1 0x0 REVERT JUMPDEST POP POP POP POP PUSH1 0x40 MLOAD RETURNDATASIZE PUSH1 0x1F NOT PUSH1 0x1F DUP3 ADD AND DUP3 ADD DUP1 PUSH1 0x40 MSTORE POP PUSH2 0x6DC SWAP2 SWAP1 DUP2 ADD SWAP1 PUSH2 0x2480 JUMP JUMPDEST PUSH11 0x8851C1E6BA5292D800000 SWAP1 JUMP JUMPDEST PUSH1 0x1 SLOAD PUSH1 0x1 PUSH1 0x1 PUSH1 0xA0 SHL SUB AND CALLER EQ PUSH2 0x108B JUMPI PUSH1 0x40 MLOAD PUSH3 0x461BCD PUSH1 0xE5 SHL DUP2 MSTORE PUSH1 0x4 ADD PUSH2 0x603 SWAP1 PUSH2 0x34C4 JUMP JUMPDEST PUSH1 0x1 PUSH1 0x1 PUSH1 0xA0 SHL SUB DUP2 AND PUSH2 0x10B1 JUMPI PUSH1 0x40 MLOAD PUSH3 0x461BCD PUSH1 0xE5 SHL DUP2 MSTORE PUSH1 0x4 ADD PUSH2 0x603 SWAP1 PUSH2 0x34E4 JUMP JUMPDEST PUSH1 0x1 DUP1 SLOAD PUSH1 0x1 PUSH1 0x1 PUSH1 0xA0 SHL SUB NOT AND PUSH1 0x1 PUSH1 0x1 PUSH1 0xA0 SHL SUB SWAP3 SWAP1 SWAP3 AND SWAP2 SWAP1 SWAP2 OR SWAP1 SSTORE JUMP JUMPDEST PUSH1 0x1 SLOAD PUSH1 0x1 PUSH1 0x1 PUSH1 0xA0 SHL SUB AND CALLER EQ PUSH2 0x10FD JUMPI PUSH1 0x40 MLOAD PUSH3 0x461BCD PUSH1 0xE5 SHL DUP2 MSTORE PUSH1 0x4 ADD PUSH2 0x603 SWAP1 PUSH2 0x3514 JUMP JUMPDEST PUSH20 0xBB536EB24FB89B544D4BD9E9F1F34D9FD902BB96 PUSH1 0x1 PUSH1 0x1 PUSH1 0xA0 SHL SUB AND PUSH4 0xE18B681 PUSH1 0x40 MLOAD DUP2 PUSH4 0xFFFFFFFF AND PUSH1 0xE0 SHL DUP2 MSTORE PUSH1 0x4 ADD PUSH1 0x0 PUSH1 0x40 MLOAD DUP1 DUP4 SUB DUP2 PUSH1 0x0 DUP8 DUP1 EXTCODESIZE ISZERO DUP1 ISZERO PUSH2 0x114C JUMPI PUSH1 0x0 DUP1 REVERT JUMPDEST POP GAS CALL ISZERO DUP1 ISZERO PUSH2 0x1160 JUMPI RETURNDATASIZE PUSH1 0x0 DUP1 RETURNDATACOPY RETURNDATASIZE PUSH1 0x0 REVERT JUMPDEST POP POP POP POP JUMP JUMPDEST PUSH20 0xBB536EB24FB89B544D4BD9E9F1F34D9FD902BB96 DUP2 JUMP JUMPDEST PUSH1 0x2 SLOAD DUP2 JUMP JUMPDEST PUSH1 0x2 SLOAD PUSH1 0x0 DUP1 SLOAD PUSH1 0x40 MLOAD PUSH4 0x2A5522AF PUSH1 0xE0 SHL DUP2 MSTORE SWAP2 SWAP3 PUSH1 0x1 ADD SWAP2 DUP4 SWAP2 PUSH1 0x1 PUSH1 0x1 PUSH1 0xA0 SHL SUB AND SWAP1 PUSH4 0x2A5522AF SWAP1 PUSH2 0x11C0 SWAP1 CALLER SWAP1 DUP7 SWAP1 PUSH1 0x4 ADD PUSH2 0x325F JUMP JUMPDEST PUSH1 0x20 PUSH1 0x40 MLOAD DUP1 DUP4 SUB DUP2 PUSH1 0x0 DUP8 DUP1 EXTCODESIZE ISZERO DUP1 ISZERO PUSH2 0x11DA JUMPI PUSH1 0x0 DUP1 REVERT JUMPDEST POP GAS CALL ISZERO DUP1 ISZERO PUSH2 0x11EE JUMPI RETURNDATASIZE PUSH1 0x0 DUP1 RETURNDATACOPY RETURNDATASIZE PUSH1 0x0 REVERT JUMPDEST POP POP POP POP PUSH1 0x40 MLOAD RETURNDATASIZE PUSH1 0x1F NOT PUSH1 0x1F DUP3 ADD AND DUP3 ADD DUP1 PUSH1 0x40 MSTORE POP PUSH2 0x1212 SWAP2 SWAP1 DUP2 ADD SWAP1 PUSH2 0x2480 JUMP JUMPDEST SWAP1 POP PUSH2 0x121C PUSH2 0x1052 JUMP JUMPDEST DUP2 GT PUSH2 0x123A JUMPI PUSH1 0x40 MLOAD PUSH3 0x461BCD PUSH1 0xE5 SHL DUP2 MSTORE PUSH1 0x4 ADD PUSH2 0x603 SWAP1 PUSH2 0x3584 JUMP JUMPDEST DUP7 MLOAD DUP9 MLOAD EQ DUP1 ISZERO PUSH2 0x124C JUMPI POP DUP6 MLOAD DUP9 MLOAD EQ JUMPDEST DUP1 ISZERO PUSH2 0x1259 JUMPI POP DUP5 MLOAD DUP9 MLOAD EQ JUMPDEST PUSH2 0x1275 JUMPI PUSH1 0x40 MLOAD PUSH3 0x461BCD PUSH1 0xE5 SHL DUP2 MSTORE PUSH1 0x4 ADD PUSH2 0x603 SWAP1 PUSH2 0x3554 JUMP JUMPDEST DUP8 MLOAD PUSH2 0x1293 JUMPI PUSH1 0x40 MLOAD PUSH3 0x461BCD PUSH1 0xE5 SHL DUP2 MSTORE PUSH1 0x4 ADD PUSH2 0x603 SWAP1 PUSH2 0x35E4 JUMP JUMPDEST PUSH2 0x129B PUSH2 0xF57 JUMP JUMPDEST DUP9 MLOAD GT ISZERO PUSH2 0x12BB JUMPI PUSH1 0x40 MLOAD PUSH3 0x461BCD PUSH1 0xE5 SHL DUP2 MSTORE PUSH1 0x4 ADD PUSH2 0x603 SWAP1 PUSH2 0x3544 JUMP JUMPDEST PUSH1 0x0 PUSH2 0x12C9 NUMBER PUSH2 0xAEF PUSH2 0x97F JUMP JUMPDEST SWAP1 POP PUSH1 0x0 PUSH2 0x12D9 DUP3 PUSH2 0xAEF PUSH2 0x56C JUMP JUMPDEST PUSH1 0x2 DUP6 SWAP1 SSTORE SWAP1 POP PUSH2 0x12E8 PUSH2 0x1D6B JUMP JUMPDEST PUSH1 0x40 MLOAD DUP1 PUSH2 0x1A0 ADD PUSH1 0x40 MSTORE DUP1 DUP7 DUP2 MSTORE PUSH1 0x20 ADD CALLER PUSH1 0x1 PUSH1 0x1 PUSH1 0xA0 SHL SUB AND DUP2 MSTORE PUSH1 0x20 ADD PUSH1 0x0 DUP2 MSTORE PUSH1 0x20 ADD DUP13 DUP2 MSTORE PUSH1 0x20 ADD DUP12 DUP2 MSTORE PUSH1 0x20 ADD DUP11 DUP2 MSTORE PUSH1 0x20 ADD DUP10 DUP2 MSTORE PUSH1 0x20 ADD DUP5 DUP2 MSTORE PUSH1 0x20 ADD DUP4 DUP2 MSTORE PUSH1 0x20 ADD PUSH1 0x0 DUP2 MSTORE PUSH1 0x20 ADD PUSH1 0x0 DUP2 MSTORE PUSH1 0x20 ADD PUSH1 0x0 ISZERO ISZERO DUP2 MSTORE PUSH1 0x20 ADD PUSH1 0x0 ISZERO ISZERO DUP2 MSTORE POP SWAP1 POP DUP1 PUSH1 0x3 PUSH1 0x0 DUP4 PUSH1 0x0 ADD MLOAD DUP2 MSTORE PUSH1 0x20 ADD SWAP1 DUP2 MSTORE PUSH1 0x20 ADD PUSH1 0x0 KECCAK256 PUSH1 0x0 DUP3 ADD MLOAD DUP2 PUSH1 0x0 ADD SSTORE PUSH1 0x20 DUP3 ADD MLOAD DUP2 PUSH1 0x1 ADD PUSH1 0x0 PUSH2 0x100 EXP DUP2 SLOAD DUP2 PUSH1 0x1 PUSH1 0x1 PUSH1 0xA0 SHL SUB MUL NOT AND SWAP1 DUP4 PUSH1 0x1 PUSH1 0x1 PUSH1 0xA0 SHL SUB AND MUL OR SWAP1 SSTORE POP PUSH1 0x40 DUP3 ADD MLOAD DUP2 PUSH1 0x2 ADD SSTORE PUSH1 0x60 DUP3 ADD MLOAD DUP2 PUSH1 0x3 ADD SWAP1 DUP1 MLOAD SWAP1 PUSH1 0x20 ADD SWAP1 PUSH2 0x13C9 SWAP3 SWAP2 SWAP1 PUSH2 0x1DE0 JUMP JUMPDEST POP PUSH1 0x80 DUP3 ADD MLOAD DUP1 MLOAD PUSH2 0x13E5 SWAP2 PUSH1 0x4 DUP5 ADD SWAP2 PUSH1 0x20 SWAP1 SWAP2 ADD SWAP1 PUSH2 0x1E45 JUMP JUMPDEST POP PUSH1 0xA0 DUP3 ADD MLOAD DUP1 MLOAD PUSH2 0x1401 SWAP2 PUSH1 0x5 DUP5 ADD SWAP2 PUSH1 0x20 SWAP1 SWAP2 ADD SWAP1 PUSH2 0x1E8C JUMP JUMPDEST POP PUSH1 0xC0 DUP3 ADD MLOAD DUP1 MLOAD PUSH2 0x141D SWAP2 PUSH1 0x6 DUP5 ADD SWAP2 PUSH1 0x20 SWAP1 SWAP2 ADD SWAP1 PUSH2 0x1EE5 JUMP JUMPDEST POP PUSH1 0xE0 DUP3 ADD MLOAD PUSH1 0x7 DUP3 ADD SSTORE PUSH2 0x100 DUP1 DUP4 ADD MLOAD PUSH1 0x8 DUP4 ADD SSTORE PUSH2 0x120 DUP4 ADD MLOAD PUSH1 0x9 DUP4 ADD SSTORE PUSH2 0x140 DUP4 ADD MLOAD PUSH1 0xA DUP4 ADD SSTORE PUSH2 0x160 DUP4 ADD MLOAD PUSH1 0xB SWAP1 SWAP3 ADD DUP1 SLOAD PUSH2 0x180 SWAP1 SWAP5 ADD MLOAD PUSH1 0xFF NOT SWAP1 SWAP5 AND SWAP3 ISZERO ISZERO SWAP3 SWAP1 SWAP3 OR PUSH2 0xFF00 NOT AND SWAP3 ISZERO ISZERO MUL SWAP2 SWAP1 SWAP2 OR SWAP1 SSTORE DUP1 MLOAD PUSH1 0x20 DUP1 DUP4 ADD MLOAD PUSH1 0x1 PUSH1 0x1 PUSH1 0xA0 SHL SUB AND PUSH1 0x0 SWAP1 DUP2 MSTORE PUSH1 0x4 SWAP1 SWAP2 MSTORE PUSH1 0x40 DUP1 DUP3 KECCAK256 SWAP3 SWAP1 SWAP3 SSTORE CALLER DUP2 MSTORE KECCAK256 SLOAD SWAP5 POP DUP5 ISZERO PUSH2 0x1512 JUMPI PUSH1 0x0 PUSH2 0x14B6 DUP7 PUSH2 0x984 JUMP JUMPDEST SWAP1 POP PUSH1 0x1 DUP2 PUSH1 0x7 DUP2 GT ISZERO PUSH2 0x14C6 JUMPI INVALID JUMPDEST EQ ISZERO PUSH2 0x14E4 JUMPI PUSH1 0x40 MLOAD PUSH3 0x461BCD PUSH1 0xE5 SHL DUP2 MSTORE PUSH1 0x4 ADD PUSH2 0x603 SWAP1 PUSH2 0x34B4 JUMP JUMPDEST PUSH1 0x0 DUP2 PUSH1 0x7 DUP2 GT ISZERO PUSH2 0x14F2 JUMPI INVALID JUMPDEST EQ ISZERO PUSH2 0x1510 JUMPI PUSH1 0x40 MLOAD PUSH3 0x461BCD PUSH1 0xE5 SHL DUP2 MSTORE PUSH1 0x4 ADD PUSH2 0x603 SWAP1 PUSH2 0x35B4 JUMP JUMPDEST POP JUMPDEST PUSH32 0x7D84A6263AE0D98D3329BD7B46BB4E8D6F98CD35A7ADB45C274C8B7FD5EBD5E0 DUP2 PUSH1 0x0 ADD MLOAD CALLER DUP14 DUP14 DUP14 DUP14 DUP10 DUP10 DUP16 PUSH1 0x40 MLOAD PUSH2 0x1555 SWAP10 SWAP9 SWAP8 SWAP7 SWAP6 SWAP5 SWAP4 SWAP3 SWAP2 SWAP1 PUSH2 0x3622 JUMP JUMPDEST PUSH1 0x40 MLOAD DUP1 SWAP2 SUB SWAP1 LOG1 MLOAD SWAP5 POP POP POP POP POP JUMPDEST SWAP6 SWAP5 POP POP POP POP POP JUMP JUMPDEST PUSH1 0x4 PUSH2 0x1579 DUP3 PUSH2 0x984 JUMP JUMPDEST PUSH1 0x7 DUP2 GT ISZERO PUSH2 0x1584 JUMPI INVALID JUMPDEST EQ PUSH2 0x15A1 JUMPI PUSH1 0x40 MLOAD PUSH3 0x461BCD PUSH1 0xE5 SHL DUP2 MSTORE PUSH1 0x4 ADD PUSH2 0x603 SWAP1 PUSH2 0x35A4 JUMP JUMPDEST PUSH1 0x0 PUSH1 0x3 PUSH1 0x0 DUP4 DUP2 MSTORE PUSH1 0x20 ADD SWAP1 DUP2 MSTORE PUSH1 0x20 ADD PUSH1 0x0 KECCAK256 SWAP1 POP PUSH1 0x0 PUSH2 0x160B TIMESTAMP PUSH20 0xBB536EB24FB89B544D4BD9E9F1F34D9FD902BB96 PUSH1 0x1 PUSH1 0x1 PUSH1 0xA0 SHL SUB AND PUSH4 0x6A42B8F8 PUSH1 0x40 MLOAD DUP2 PUSH4 0xFFFFFFFF AND PUSH1 0xE0 SHL DUP2 MSTORE PUSH1 0x4 ADD PUSH1 0x20 PUSH1 0x40 MLOAD DUP1 DUP4 SUB DUP2 DUP7 DUP1 EXTCODESIZE ISZERO DUP1 ISZERO PUSH2 0xAB7 JUMPI PUSH1 0x0 DUP1 REVERT JUMPDEST SWAP1 POP PUSH1 0x0 JUMPDEST PUSH1 0x3 DUP4 ADD SLOAD DUP2 LT ISZERO PUSH2 0x17B3 JUMPI PUSH2 0x17AB DUP4 PUSH1 0x3 ADD DUP3 DUP2 SLOAD DUP2 LT PUSH2 0x162E JUMPI INVALID JUMPDEST PUSH1 0x0 SWAP2 DUP3 MSTORE PUSH1 0x20 SWAP1 SWAP2 KECCAK256 ADD SLOAD PUSH1 0x4 DUP6 ADD DUP1 SLOAD PUSH1 0x1 PUSH1 0x1 PUSH1 0xA0 SHL SUB SWAP1 SWAP3 AND SWAP2 DUP5 SWAP1 DUP2 LT PUSH2 0x1656 JUMPI INVALID JUMPDEST SWAP1 PUSH1 0x0 MSTORE PUSH1 0x20 PUSH1 0x0 KECCAK256 ADD SLOAD DUP6 PUSH1 0x5 ADD DUP5 DUP2 SLOAD DUP2 LT PUSH2 0x1670 JUMPI INVALID JUMPDEST PUSH1 0x0 SWAP2 DUP3 MSTORE PUSH1 0x20 SWAP2 DUP3 SWAP1 KECCAK256 ADD DUP1 SLOAD PUSH1 0x40 DUP1 MLOAD PUSH1 0x1F PUSH1 0x2 PUSH1 0x0 NOT PUSH2 0x100 PUSH1 0x1 DUP8 AND ISZERO MUL ADD SWAP1 SWAP5 AND SWAP4 SWAP1 SWAP4 DIV SWAP3 DUP4 ADD DUP6 SWAP1 DIV DUP6 MUL DUP2 ADD DUP6 ADD SWAP1 SWAP2 MSTORE DUP2 DUP2 MSTORE SWAP3 DUP4 ADD DUP3 DUP3 DUP1 ISZERO PUSH2 0x16FE JUMPI DUP1 PUSH1 0x1F LT PUSH2 0x16D3 JUMPI PUSH2 0x100 DUP1 DUP4 SLOAD DIV MUL DUP4 MSTORE SWAP2 PUSH1 0x20 ADD SWAP2 PUSH2 0x16FE JUMP JUMPDEST DUP3 ADD SWAP2 SWAP1 PUSH1 0x0 MSTORE PUSH1 0x20 PUSH1 0x0 KECCAK256 SWAP1 JUMPDEST DUP2 SLOAD DUP2 MSTORE SWAP1 PUSH1 0x1 ADD SWAP1 PUSH1 0x20 ADD DUP1 DUP4 GT PUSH2 0x16E1 JUMPI DUP3 SWAP1 SUB PUSH1 0x1F AND DUP3 ADD SWAP2 JUMPDEST POP POP POP POP POP DUP7 PUSH1 0x6 ADD DUP6 DUP2 SLOAD DUP2 LT PUSH2 0x1712 JUMPI INVALID JUMPDEST PUSH1 0x0 SWAP2 DUP3 MSTORE PUSH1 0x20 SWAP2 DUP3 SWAP1 KECCAK256 ADD DUP1 SLOAD PUSH1 0x40 DUP1 MLOAD PUSH1 0x1F PUSH1 0x2 PUSH1 0x0 NOT PUSH2 0x100 PUSH1 0x1 DUP8 AND ISZERO MUL ADD SWAP1 SWAP5 AND SWAP4 SWAP1 SWAP4 DIV SWAP3 DUP4 ADD DUP6 SWAP1 DIV DUP6 MUL DUP2 ADD DUP6 ADD SWAP1 SWAP2 MSTORE DUP2 DUP2 MSTORE SWAP3 DUP4 ADD DUP3 DUP3 DUP1 ISZERO PUSH2 0x17A0 JUMPI DUP1 PUSH1 0x1F LT PUSH2 0x1775 JUMPI PUSH2 0x100 DUP1 DUP4 SLOAD DIV MUL DUP4 MSTORE SWAP2 PUSH1 0x20 ADD SWAP2 PUSH2 0x17A0 JUMP JUMPDEST DUP3 ADD SWAP2 SWAP1 PUSH1 0x0 MSTORE PUSH1 0x20 PUSH1 0x0 KECCAK256 SWAP1 JUMPDEST DUP2 SLOAD DUP2 MSTORE SWAP1 PUSH1 0x1 ADD SWAP1 PUSH1 0x20 ADD DUP1 DUP4 GT PUSH2 0x1783 JUMPI DUP3 SWAP1 SUB PUSH1 0x1F AND DUP3 ADD SWAP2 JUMPDEST POP POP POP POP POP DUP7 PUSH2 0x1BF7 JUMP JUMPDEST PUSH1 0x1 ADD PUSH2 0x1610 JUMP JUMPDEST POP PUSH1 0x2 DUP3 ADD DUP2 SWAP1 SSTORE PUSH1 0x40 MLOAD PUSH32 0x9A2E42FD6722813D69113E7D0079D3D940171428DF7373DF9C7F7617CFDA2892 SWAP1 PUSH2 0xD5E SWAP1 DUP6 SWAP1 DUP5 SWAP1 PUSH2 0x3750 JUMP JUMPDEST PUSH1 0x40 MLOAD PUSH2 0x5CE SWAP1 PUSH2 0x3246 JUMP JUMPDEST PUSH2 0x1801 PUSH2 0x1F3E JUMP JUMPDEST POP PUSH1 0x0 DUP3 DUP2 MSTORE PUSH1 0x3 PUSH1 0x20 SWAP1 DUP2 MSTORE PUSH1 0x40 DUP1 DUP4 KECCAK256 PUSH1 0x1 PUSH1 0x1 PUSH1 0xA0 SHL SUB DUP6 AND DUP5 MSTORE PUSH1 0xC ADD DUP3 MSTORE SWAP2 DUP3 SWAP1 KECCAK256 DUP3 MLOAD PUSH1 0x60 DUP2 ADD DUP5 MSTORE DUP2 SLOAD PUSH1 0xFF DUP1 DUP3 AND ISZERO ISZERO DUP4 MSTORE PUSH2 0x100 SWAP1 SWAP2 DIV AND ISZERO ISZERO SWAP3 DUP2 ADD SWAP3 SWAP1 SWAP3 MSTORE PUSH1 0x1 ADD SLOAD SWAP2 DUP2 ADD SWAP2 SWAP1 SWAP2 MSTORE JUMPDEST SWAP3 SWAP2 POP POP JUMP JUMPDEST PUSH1 0x5 PUSH2 0x1868 DUP3 PUSH2 0x984 JUMP JUMPDEST PUSH1 0x7 DUP2 GT ISZERO PUSH2 0x1873 JUMPI INVALID JUMPDEST EQ PUSH2 0x1890 JUMPI PUSH1 0x40 MLOAD PUSH3 0x461BCD PUSH1 0xE5 SHL DUP2 MSTORE PUSH1 0x4 ADD PUSH2 0x603 SWAP1 PUSH2 0x35C4 JUMP JUMPDEST PUSH1 0x0 DUP2 DUP2 MSTORE PUSH1 0x3 PUSH1 0x20 MSTORE PUSH1 0x40 DUP2 KECCAK256 PUSH1 0xB DUP2 ADD DUP1 SLOAD PUSH2 0xFF00 NOT AND PUSH2 0x100 OR SWAP1 SSTORE SWAP1 JUMPDEST PUSH1 0x3 DUP3 ADD SLOAD DUP2 LT ISZERO PUSH2 0x19F2 JUMPI PUSH20 0xBB536EB24FB89B544D4BD9E9F1F34D9FD902BB96 PUSH1 0x1 PUSH1 0x1 PUSH1 0xA0 SHL SUB AND PUSH4 0x825F38F DUP4 PUSH1 0x4 ADD DUP4 DUP2 SLOAD DUP2 LT PUSH2 0x18EF JUMPI INVALID JUMPDEST SWAP1 PUSH1 0x0 MSTORE PUSH1 0x20 PUSH1 0x0 KECCAK256 ADD SLOAD DUP5 PUSH1 0x3 ADD DUP5 DUP2 SLOAD DUP2 LT PUSH2 0x1909 JUMPI INVALID JUMPDEST PUSH1 0x0 SWAP2 DUP3 MSTORE PUSH1 0x20 SWAP1 SWAP2 KECCAK256 ADD SLOAD PUSH1 0x4 DUP7 ADD DUP1 SLOAD PUSH1 0x1 PUSH1 0x1 PUSH1 0xA0 SHL SUB SWAP1 SWAP3 AND SWAP2 DUP7 SWAP1 DUP2 LT PUSH2 0x1931 JUMPI INVALID JUMPDEST SWAP1 PUSH1 0x0 MSTORE PUSH1 0x20 PUSH1 0x0 KECCAK256 ADD SLOAD DUP7 PUSH1 0x5 ADD DUP7 DUP2 SLOAD DUP2 LT PUSH2 0x194B JUMPI INVALID JUMPDEST SWAP1 PUSH1 0x0 MSTORE PUSH1 0x20 PUSH1 0x0 KECCAK256 ADD DUP8 PUSH1 0x6 ADD DUP8 DUP2 SLOAD DUP2 LT PUSH2 0x1964 JUMPI INVALID JUMPDEST SWAP1 PUSH1 0x0 MSTORE PUSH1 0x20 PUSH1 0x0 KECCAK256 ADD DUP9 PUSH1 0x2 ADD SLOAD PUSH1 0x40 MLOAD DUP8 PUSH4 0xFFFFFFFF AND PUSH1 0xE0 SHL DUP2 MSTORE PUSH1 0x4 ADD PUSH2 0x1993 SWAP6 SWAP5 SWAP4 SWAP3 SWAP2 SWAP1 PUSH2 0x3366 JUMP JUMPDEST PUSH1 0x0 PUSH1 0x40 MLOAD DUP1 DUP4 SUB DUP2 DUP6 DUP9 DUP1 EXTCODESIZE ISZERO DUP1 ISZERO PUSH2 0x19AC JUMPI PUSH1 0x0 DUP1 REVERT JUMPDEST POP GAS CALL ISZERO DUP1 ISZERO PUSH2 0x19C0 JUMPI RETURNDATASIZE PUSH1 0x0 DUP1 RETURNDATACOPY RETURNDATASIZE PUSH1 0x0 REVERT JUMPDEST POP POP POP POP POP PUSH1 0x40 MLOAD RETURNDATASIZE PUSH1 0x0 DUP3 RETURNDATACOPY PUSH1 0x1F RETURNDATASIZE SWAP1 DUP2 ADD PUSH1 0x1F NOT AND DUP3 ADD PUSH1 0x40 MSTORE PUSH2 0x19E9 SWAP2 SWAP1 DUP2 ADD SWAP1 PUSH2 0x249E JUMP JUMPDEST POP PUSH1 0x1 ADD PUSH2 0x18B1 JUMP JUMPDEST POP PUSH32 0x712AE1383F79AC853F8D882153778E0260EF8F03B504E2866E0593E04D2B291F DUP3 PUSH1 0x40 MLOAD PUSH2 0x1A22 SWAP2 SWAP1 PUSH2 0x33F4 JUMP JUMPDEST PUSH1 0x40 MLOAD DUP1 SWAP2 SUB SWAP1 LOG1 POP POP JUMP JUMPDEST PUSH1 0x1 PUSH2 0x1A39 DUP4 PUSH2 0x984 JUMP JUMPDEST PUSH1 0x7 DUP2 GT ISZERO PUSH2 0x1A44 JUMPI INVALID JUMPDEST EQ PUSH2 0x1A61 JUMPI PUSH1 0x40 MLOAD PUSH3 0x461BCD PUSH1 0xE5 SHL DUP2 MSTORE PUSH1 0x4 ADD PUSH2 0x603 SWAP1 PUSH2 0x3574 JUMP JUMPDEST PUSH1 0x0 DUP3 DUP2 MSTORE PUSH1 0x3 PUSH1 0x20 SWAP1 DUP2 MSTORE PUSH1 0x40 DUP1 DUP4 KECCAK256 PUSH1 0x1 PUSH1 0x1 PUSH1 0xA0 SHL SUB DUP8 AND DUP5 MSTORE PUSH1 0xC DUP2 ADD SWAP1 SWAP3 MSTORE SWAP1 SWAP2 KECCAK256 DUP1 SLOAD PUSH1 0xFF AND ISZERO PUSH2 0x1AAA JUMPI PUSH1 0x40 MLOAD PUSH3 0x461BCD PUSH1 0xE5 SHL DUP2 MSTORE PUSH1 0x4 ADD PUSH2 0x603 SWAP1 PUSH2 0x35F4 JUMP JUMPDEST PUSH1 0x0 DUP1 SLOAD PUSH1 0x40 MLOAD PUSH4 0xC1159297 PUSH1 0xE0 SHL DUP2 MSTORE PUSH1 0x1 PUSH1 0x1 PUSH1 0xA0 SHL SUB SWAP1 SWAP2 AND SWAP1 PUSH4 0xC1159297 SWAP1 PUSH2 0x1ADD SWAP1 DUP10 SWAP1 DUP10 SWAP1 PUSH1 0x4 ADD PUSH2 0x32C9 JUMP JUMPDEST PUSH1 0x20 PUSH1 0x40 MLOAD DUP1 DUP4 SUB DUP2 DUP7 DUP1 EXTCODESIZE ISZERO DUP1 ISZERO PUSH2 0x1AF5 JUMPI PUSH1 0x0 DUP1 REVERT JUMPDEST POP GAS STATICCALL ISZERO DUP1 ISZERO PUSH2 0x1B09 JUMPI RETURNDATASIZE PUSH1 0x0 DUP1 RETURNDATACOPY RETURNDATASIZE PUSH1 0x0 REVERT JUMPDEST POP POP POP POP PUSH1 0x40 MLOAD RETURNDATASIZE PUSH1 0x1F NOT PUSH1 0x1F DUP3 ADD AND DUP3 ADD DUP1 PUSH1 0x40 MSTORE POP PUSH2 0x1B2D SWAP2 SWAP1 DUP2 ADD SWAP1 PUSH2 0x2480 JUMP JUMPDEST SWAP1 POP DUP4 ISZERO PUSH2 0x1B4D JUMPI PUSH2 0x1B43 DUP4 PUSH1 0x9 ADD SLOAD DUP3 PUSH2 0x1BC7 JUMP JUMPDEST PUSH1 0x9 DUP5 ADD SSTORE PUSH2 0x1B61 JUMP JUMPDEST PUSH2 0x1B5B DUP4 PUSH1 0xA ADD SLOAD DUP3 PUSH2 0x1BC7 JUMP JUMPDEST PUSH1 0xA DUP5 ADD SSTORE JUMPDEST DUP2 SLOAD PUSH1 0x1 PUSH1 0xFF NOT SWAP1 SWAP2 AND DUP2 OR PUSH2 0xFF00 NOT AND PUSH2 0x100 DUP7 ISZERO ISZERO MUL OR DUP4 SSTORE DUP3 ADD DUP2 SWAP1 SSTORE PUSH1 0x40 MLOAD PUSH32 0x877856338E13F63D0C36822FF0EF736B80934CD90574A3A5BC9262C39D217C46 SWAP1 PUSH2 0x1BB7 SWAP1 DUP9 SWAP1 DUP9 SWAP1 DUP9 SWAP1 DUP7 SWAP1 PUSH2 0x32D7 JUMP JUMPDEST PUSH1 0x40 MLOAD DUP1 SWAP2 SUB SWAP1 LOG1 POP POP POP POP POP POP JUMP JUMPDEST PUSH1 0x0 DUP3 DUP3 ADD DUP4 DUP2 LT ISZERO PUSH2 0x1BEC JUMPI PUSH1 0x40 MLOAD PUSH3 0x461BCD PUSH1 0xE5 SHL DUP2 MSTORE PUSH1 0x4 ADD PUSH2 0x603 SWAP1 PUSH2 0x3594 JUMP JUMPDEST SWAP4 SWAP3 POP POP POP JUMP JUMPDEST CHAINID SWAP1 JUMP JUMPDEST PUSH20 0xBB536EB24FB89B544D4BD9E9F1F34D9FD902BB96 PUSH1 0x1 PUSH1 0x1 PUSH1 0xA0 SHL SUB AND PUSH4 0xF2B06537 DUP7 DUP7 DUP7 DUP7 DUP7 PUSH1 0x40 MLOAD PUSH1 0x20 ADD PUSH2 0x1C33 SWAP6 SWAP5 SWAP4 SWAP3 SWAP2 SWAP1 PUSH2 0x330C JUMP JUMPDEST PUSH1 0x40 MLOAD PUSH1 0x20 DUP2 DUP4 SUB SUB DUP2 MSTORE SWAP1 PUSH1 0x40 MSTORE DUP1 MLOAD SWAP1 PUSH1 0x20 ADD KECCAK256 PUSH1 0x40 MLOAD DUP3 PUSH4 0xFFFFFFFF AND PUSH1 0xE0 SHL DUP2 MSTORE PUSH1 0x4 ADD PUSH2 0x1C65 SWAP2 SWAP1 PUSH2 0x33F4 JUMP JUMPDEST PUSH1 0x20 PUSH1 0x40 MLOAD DUP1 DUP4 SUB DUP2 DUP7 DUP1 EXTCODESIZE ISZERO DUP1 ISZERO PUSH2 0x1C7D JUMPI PUSH1 0x0 DUP1 REVERT JUMPDEST POP GAS STATICCALL ISZERO DUP1 ISZERO PUSH2 0x1C91 JUMPI RETURNDATASIZE PUSH1 0x0 DUP1 RETURNDATACOPY RETURNDATASIZE PUSH1 0x0 REVERT JUMPDEST POP POP POP POP PUSH1 0x40 MLOAD RETURNDATASIZE PUSH1 0x1F NOT PUSH1 0x1F DUP3 ADD AND DUP3 ADD DUP1 PUSH1 0x40 MSTORE POP PUSH2 0x1CB5 SWAP2 SWAP1 DUP2 ADD SWAP1 PUSH2 0x2462 JUMP JUMPDEST ISZERO PUSH2 0x1CD2 JUMPI PUSH1 0x40 MLOAD PUSH3 0x461BCD PUSH1 0xE5 SHL DUP2 MSTORE PUSH1 0x4 ADD PUSH2 0x603 SWAP1 PUSH2 0x3524 JUMP JUMPDEST PUSH1 0x40 MLOAD PUSH4 0x3A66F901 PUSH1 0xE0 SHL DUP2 MSTORE PUSH20 0xBB536EB24FB89B544D4BD9E9F1F34D9FD902BB96 SWAP1 PUSH4 0x3A66F901 SWAP1 PUSH2 0x1D11 SWAP1 DUP9 SWAP1 DUP9 SWAP1 DUP9 SWAP1 DUP9 SWAP1 DUP9 SWAP1 PUSH1 0x4 ADD PUSH2 0x330C JUMP JUMPDEST PUSH1 0x20 PUSH1 0x40 MLOAD DUP1 DUP4 SUB DUP2 PUSH1 0x0 DUP8 DUP1 EXTCODESIZE ISZERO DUP1 ISZERO PUSH2 0x1D2B JUMPI PUSH1 0x0 DUP1 REVERT JUMPDEST POP GAS CALL ISZERO DUP1 ISZERO PUSH2 0x1D3F JUMPI RETURNDATASIZE PUSH1 0x0 DUP1 RETURNDATACOPY RETURNDATASIZE PUSH1 0x0 REVERT JUMPDEST POP POP POP POP PUSH1 0x40 MLOAD RETURNDATASIZE PUSH1 0x1F NOT PUSH1 0x1F DUP3 ADD AND DUP3 ADD DUP1 PUSH1 0x40 MSTORE POP PUSH2 0x1D63 SWAP2 SWAP1 DUP2 ADD SWAP1 PUSH2 0x2480 JUMP JUMPDEST POP POP POP POP POP POP JUMP JUMPDEST PUSH1 0x40 MLOAD DUP1 PUSH2 0x1A0 ADD PUSH1 0x40 MSTORE DUP1 PUSH1 0x0 DUP2 MSTORE PUSH1 0x20 ADD PUSH1 0x0 PUSH1 0x1 PUSH1 0x1 PUSH1 0xA0 SHL SUB AND DUP2 MSTORE PUSH1 0x20 ADD PUSH1 0x0 DUP2 MSTORE PUSH1 0x20 ADD PUSH1 0x60 DUP2 MSTORE PUSH1 0x20 ADD PUSH1 0x60 DUP2 MSTORE PUSH1 0x20 ADD PUSH1 0x60 DUP2 MSTORE PUSH1 0x20 ADD PUSH1 0x60 DUP2 MSTORE PUSH1 0x20 ADD PUSH1 0x0 DUP2 MSTORE PUSH1 0x20 ADD PUSH1 0x0 DUP2 MSTORE PUSH1 0x20 ADD PUSH1 0x0 DUP2 MSTORE PUSH1 0x20 ADD PUSH1 0x0 DUP2 MSTORE PUSH1 0x20 ADD PUSH1 0x0 ISZERO ISZERO DUP2 MSTORE PUSH1 0x20 ADD PUSH1 0x0 ISZERO ISZERO DUP2 MSTORE POP SWAP1 JUMP JUMPDEST DUP3 DUP1 SLOAD DUP3 DUP3 SSTORE SWAP1 PUSH1 0x0 MSTORE PUSH1 0x20 PUSH1 0x0 KECCAK256 SWAP1 DUP2 ADD SWAP3 DUP3 ISZERO PUSH2 0x1E35 JUMPI SWAP2 PUSH1 0x20 MUL DUP3 ADD JUMPDEST DUP3 DUP2 GT ISZERO PUSH2 0x1E35 JUMPI DUP3 MLOAD DUP3 SLOAD PUSH1 0x1 PUSH1 0x1 PUSH1 0xA0 SHL SUB NOT AND PUSH1 0x1 PUSH1 0x1 PUSH1 0xA0 SHL SUB SWAP1 SWAP2 AND OR DUP3 SSTORE PUSH1 0x20 SWAP1 SWAP3 ADD SWAP2 PUSH1 0x1 SWAP1 SWAP2 ADD SWAP1 PUSH2 0x1E00 JUMP JUMPDEST POP PUSH2 0x1E41 SWAP3 SWAP2 POP PUSH2 0x1F5E JUMP JUMPDEST POP SWAP1 JUMP JUMPDEST DUP3 DUP1 SLOAD DUP3 DUP3 SSTORE SWAP1 PUSH1 0x0 MSTORE PUSH1 0x20 PUSH1 0x0 KECCAK256 SWAP1 DUP2 ADD SWAP3 DUP3 ISZERO PUSH2 0x1E80 JUMPI SWAP2 PUSH1 0x20 MUL DUP3 ADD JUMPDEST DUP3 DUP2 GT ISZERO PUSH2 0x1E80 JUMPI DUP3 MLOAD DUP3 SSTORE SWAP2 PUSH1 0x20 ADD SWAP2 SWAP1 PUSH1 0x1 ADD SWAP1 PUSH2 0x1E65 JUMP JUMPDEST POP PUSH2 0x1E41 SWAP3 SWAP2 POP PUSH2 0x1F82 JUMP JUMPDEST DUP3 DUP1 SLOAD DUP3 DUP3 SSTORE SWAP1 PUSH1 0x0 MSTORE PUSH1 0x20 PUSH1 0x0 KECCAK256 SWAP1 DUP2 ADD SWAP3 DUP3 ISZERO PUSH2 0x1ED9 JUMPI SWAP2 PUSH1 0x20 MUL DUP3 ADD JUMPDEST DUP3 DUP2 GT ISZERO PUSH2 0x1ED9 JUMPI DUP3 MLOAD DUP1 MLOAD PUSH2 0x1EC9 SWAP2 DUP5 SWAP2 PUSH1 0x20 SWAP1 SWAP2 ADD SWAP1 PUSH2 0x1F9C JUMP JUMPDEST POP SWAP2 PUSH1 0x20 ADD SWAP2 SWAP1 PUSH1 0x1 ADD SWAP1 PUSH2 0x1EAC JUMP JUMPDEST POP PUSH2 0x1E41 SWAP3 SWAP2 POP PUSH2 0x2009 JUMP JUMPDEST DUP3 DUP1 SLOAD DUP3 DUP3 SSTORE SWAP1 PUSH1 0x0 MSTORE PUSH1 0x20 PUSH1 0x0 KECCAK256 SWAP1 DUP2 ADD SWAP3 DUP3 ISZERO PUSH2 0x1F32 JUMPI SWAP2 PUSH1 0x20 MUL DUP3 ADD JUMPDEST DUP3 DUP2 GT ISZERO PUSH2 0x1F32 JUMPI DUP3 MLOAD DUP1 MLOAD PUSH2 0x1F22 SWAP2 DUP5 SWAP2 PUSH1 0x20 SWAP1 SWAP2 ADD SWAP1 PUSH2 0x1F9C JUMP JUMPDEST POP SWAP2 PUSH1 0x20 ADD SWAP2 SWAP1 PUSH1 0x1 ADD SWAP1 PUSH2 0x1F05 JUMP JUMPDEST POP PUSH2 0x1E41 SWAP3 SWAP2 POP PUSH2 0x202C JUMP JUMPDEST PUSH1 0x40 DUP1 MLOAD PUSH1 0x60 DUP2 ADD DUP3 MSTORE PUSH1 0x0 DUP1 DUP3 MSTORE PUSH1 0x20 DUP3 ADD DUP2 SWAP1 MSTORE SWAP2 DUP2 ADD SWAP2 SWAP1 SWAP2 MSTORE SWAP1 JUMP JUMPDEST PUSH2 0x570 SWAP2 SWAP1 JUMPDEST DUP1 DUP3 GT ISZERO PUSH2 0x1E41 JUMPI DUP1 SLOAD PUSH1 0x1 PUSH1 0x1 PUSH1 0xA0 SHL SUB NOT AND DUP2 SSTORE PUSH1 0x1 ADD PUSH2 0x1F64 JUMP JUMPDEST PUSH2 0x570 SWAP2 SWAP1 JUMPDEST DUP1 DUP3 GT ISZERO PUSH2 0x1E41 JUMPI PUSH1 0x0 DUP2 SSTORE PUSH1 0x1 ADD PUSH2 0x1F88 JUMP JUMPDEST DUP3 DUP1 SLOAD PUSH1 0x1 DUP2 PUSH1 0x1 AND ISZERO PUSH2 0x100 MUL SUB AND PUSH1 0x2 SWAP1 DIV SWAP1 PUSH1 0x0 MSTORE PUSH1 0x20 PUSH1 0x0 KECCAK256 SWAP1 PUSH1 0x1F ADD PUSH1 0x20 SWAP1 DIV DUP2 ADD SWAP3 DUP3 PUSH1 0x1F LT PUSH2 0x1FDD JUMPI DUP1 MLOAD PUSH1 0xFF NOT AND DUP4 DUP1 ADD OR DUP6 SSTORE PUSH2 0x1E80 JUMP JUMPDEST DUP3 DUP1 ADD PUSH1 0x1 ADD DUP6 SSTORE DUP3 ISZERO PUSH2 0x1E80 JUMPI SWAP2 DUP3 ADD DUP3 DUP2 GT ISZERO PUSH2 0x1E80 JUMPI DUP3 MLOAD DUP3 SSTORE SWAP2 PUSH1 0x20 ADD SWAP2 SWAP1 PUSH1 0x1 ADD SWAP1 PUSH2 0x1E65 JUMP JUMPDEST PUSH2 0x570 SWAP2 SWAP1 JUMPDEST DUP1 DUP3 GT ISZERO PUSH2 0x1E41 JUMPI PUSH1 0x0 PUSH2 0x2023 DUP3 DUP3 PUSH2 0x204F JUMP JUMPDEST POP PUSH1 0x1 ADD PUSH2 0x200F JUMP JUMPDEST PUSH2 0x570 SWAP2 SWAP1 JUMPDEST DUP1 DUP3 GT ISZERO PUSH2 0x1E41 JUMPI PUSH1 0x0 PUSH2 0x2046 DUP3 DUP3 PUSH2 0x204F JUMP JUMPDEST POP PUSH1 0x1 ADD PUSH2 0x2032 JUMP JUMPDEST POP DUP1 SLOAD PUSH1 0x1 DUP2 PUSH1 0x1 AND ISZERO PUSH2 0x100 MUL SUB AND PUSH1 0x2 SWAP1 DIV PUSH1 0x0 DUP3 SSTORE DUP1 PUSH1 0x1F LT PUSH2 0x2075 JUMPI POP PUSH2 0x2093 JUMP JUMPDEST PUSH1 0x1F ADD PUSH1 0x20 SWAP1 DIV SWAP1 PUSH1 0x0 MSTORE PUSH1 0x20 PUSH1 0x0 KECCAK256 SWAP1 DUP2 ADD SWAP1 PUSH2 0x2093 SWAP2 SWAP1 PUSH2 0x1F82 JUMP JUMPDEST POP JUMP JUMPDEST DUP1 CALLDATALOAD PUSH2 0x1857 DUP2 PUSH2 0x388D JUMP JUMPDEST PUSH1 0x0 DUP3 PUSH1 0x1F DUP4 ADD SLT PUSH2 0x20B2 JUMPI PUSH1 0x0 DUP1 REVERT JUMPDEST DUP2 CALLDATALOAD PUSH2 0x20C5 PUSH2 0x20C0 DUP3 PUSH2 0x3785 JUMP JUMPDEST PUSH2 0x375E JUMP JUMPDEST SWAP2 POP DUP2 DUP2 DUP4 MSTORE PUSH1 0x20 DUP5 ADD SWAP4 POP PUSH1 0x20 DUP2 ADD SWAP1 POP DUP4 DUP6 PUSH1 0x20 DUP5 MUL DUP3 ADD GT ISZERO PUSH2 0x20EA JUMPI PUSH1 0x0 DUP1 REVERT JUMPDEST PUSH1 0x0 JUMPDEST DUP4 DUP2 LT ISZERO PUSH2 0x2116 JUMPI DUP2 PUSH2 0x2100 DUP9 DUP3 PUSH2 0x2096 JUMP JUMPDEST DUP5 MSTORE POP PUSH1 0x20 SWAP3 DUP4 ADD SWAP3 SWAP2 SWAP1 SWAP2 ADD SWAP1 PUSH1 0x1 ADD PUSH2 0x20ED JUMP JUMPDEST POP POP POP POP SWAP3 SWAP2 POP POP JUMP JUMPDEST PUSH1 0x0 DUP3 PUSH1 0x1F DUP4 ADD SLT PUSH2 0x2131 JUMPI PUSH1 0x0 DUP1 REVERT JUMPDEST DUP2 CALLDATALOAD PUSH2 0x213F PUSH2 0x20C0 DUP3 PUSH2 0x3785 JUMP JUMPDEST DUP2 DUP2 MSTORE PUSH1 0x20 SWAP4 DUP5 ADD SWAP4 SWAP1 SWAP3 POP DUP3 ADD DUP4 PUSH1 0x0 JUMPDEST DUP4 DUP2 LT ISZERO PUSH2 0x2116 JUMPI DUP2 CALLDATALOAD DUP7 ADD PUSH2 0x2167 DUP9 DUP3 PUSH2 0x2276 JUMP JUMPDEST DUP5 MSTORE POP PUSH1 0x20 SWAP3 DUP4 ADD SWAP3 SWAP2 SWAP1 SWAP2 ADD SWAP1 PUSH1 0x1 ADD PUSH2 0x2151 JUMP JUMPDEST PUSH1 0x0 DUP3 PUSH1 0x1F DUP4 ADD SLT PUSH2 0x218E JUMPI PUSH1 0x0 DUP1 REVERT JUMPDEST DUP2 CALLDATALOAD PUSH2 0x219C PUSH2 0x20C0 DUP3 PUSH2 0x3785 JUMP JUMPDEST DUP2 DUP2 MSTORE PUSH1 0x20 SWAP4 DUP5 ADD SWAP4 SWAP1 SWAP3 POP DUP3 ADD DUP4 PUSH1 0x0 JUMPDEST DUP4 DUP2 LT ISZERO PUSH2 0x2116 JUMPI DUP2 CALLDATALOAD DUP7 ADD PUSH2 0x21C4 DUP9 DUP3 PUSH2 0x2276 JUMP JUMPDEST DUP5 MSTORE POP PUSH1 0x20 SWAP3 DUP4 ADD SWAP3 SWAP2 SWAP1 SWAP2 ADD SWAP1 PUSH1 0x1 ADD PUSH2 0x21AE JUMP JUMPDEST PUSH1 0x0 DUP3 PUSH1 0x1F DUP4 ADD SLT PUSH2 0x21EB JUMPI PUSH1 0x0 DUP1 REVERT JUMPDEST DUP2 CALLDATALOAD PUSH2 0x21F9 PUSH2 0x20C0 DUP3 PUSH2 0x3785 JUMP JUMPDEST SWAP2 POP DUP2 DUP2 DUP4 MSTORE PUSH1 0x20 DUP5 ADD SWAP4 POP PUSH1 0x20 DUP2 ADD SWAP1 POP DUP4 DUP6 PUSH1 0x20 DUP5 MUL DUP3 ADD GT ISZERO PUSH2 0x221E JUMPI PUSH1 0x0 DUP1 REVERT JUMPDEST PUSH1 0x0 JUMPDEST DUP4 DUP2 LT ISZERO PUSH2 0x2116 JUMPI DUP2 PUSH2 0x2234 DUP9 DUP3 PUSH2 0x2260 JUMP JUMPDEST DUP5 MSTORE POP PUSH1 0x20 SWAP3 DUP4 ADD SWAP3 SWAP2 SWAP1 SWAP2 ADD SWAP1 PUSH1 0x1 ADD PUSH2 0x2221 JUMP JUMPDEST DUP1 CALLDATALOAD PUSH2 0x1857 DUP2 PUSH2 0x38A1 JUMP JUMPDEST DUP1 MLOAD PUSH2 0x1857 DUP2 PUSH2 0x38A1 JUMP JUMPDEST DUP1 CALLDATALOAD PUSH2 0x1857 DUP2 PUSH2 0x38AA JUMP JUMPDEST DUP1 MLOAD PUSH2 0x1857 DUP2 PUSH2 0x38AA JUMP JUMPDEST PUSH1 0x0 DUP3 PUSH1 0x1F DUP4 ADD SLT PUSH2 0x2287 JUMPI PUSH1 0x0 DUP1 REVERT JUMPDEST DUP2 CALLDATALOAD PUSH2 0x2295 PUSH2 0x20C0 DUP3 PUSH2 0x37A6 JUMP JUMPDEST SWAP2 POP DUP1 DUP3 MSTORE PUSH1 0x20 DUP4 ADD PUSH1 0x20 DUP4 ADD DUP6 DUP4 DUP4 ADD GT ISZERO PUSH2 0x22B1 JUMPI PUSH1 0x0 DUP1 REVERT JUMPDEST PUSH2 0x22BC DUP4 DUP3 DUP5 PUSH2 0x3841 JUMP JUMPDEST POP POP POP SWAP3 SWAP2 POP POP JUMP JUMPDEST PUSH1 0x0 DUP3 PUSH1 0x1F DUP4 ADD SLT PUSH2 0x22D6 JUMPI PUSH1 0x0 DUP1 REVERT JUMPDEST DUP2 MLOAD PUSH2 0x22E4 PUSH2 0x20C0 DUP3 PUSH2 0x37A6 JUMP JUMPDEST SWAP2 POP DUP1 DUP3 MSTORE PUSH1 0x20 DUP4 ADD PUSH1 0x20 DUP4 ADD DUP6 DUP4 DUP4 ADD GT ISZERO PUSH2 0x2300 JUMPI PUSH1 0x0 DUP1 REVERT JUMPDEST PUSH2 0x22BC DUP4 DUP3 DUP5 PUSH2 0x384D JUMP JUMPDEST DUP1 CALLDATALOAD PUSH2 0x1857 DUP2 PUSH2 0x38B3 JUMP JUMPDEST PUSH1 0x0 PUSH1 0x20 DUP3 DUP5 SUB SLT ISZERO PUSH2 0x2328 JUMPI PUSH1 0x0 DUP1 REVERT JUMPDEST PUSH1 0x0 PUSH2 0x2334 DUP5 DUP5 PUSH2 0x2096 JUMP JUMPDEST SWAP5 SWAP4 POP POP POP POP JUMP JUMPDEST PUSH1 0x0 DUP1 PUSH1 0x40 DUP4 DUP6 SUB SLT ISZERO PUSH2 0x234F JUMPI PUSH1 0x0 DUP1 REVERT JUMPDEST PUSH1 0x0 PUSH2 0x235B DUP6 DUP6 PUSH2 0x2096 JUMP JUMPDEST SWAP3 POP POP PUSH1 0x20 PUSH2 0x236C DUP6 DUP3 DUP7 ADD PUSH2 0x2260 JUMP JUMPDEST SWAP2 POP POP SWAP3 POP SWAP3 SWAP1 POP JUMP JUMPDEST PUSH1 0x0 DUP1 PUSH1 0x0 DUP1 PUSH1 0x0 PUSH1 0xA0 DUP7 DUP9 SUB SLT ISZERO PUSH2 0x238E JUMPI PUSH1 0x0 DUP1 REVERT JUMPDEST DUP6 CALLDATALOAD PUSH8 0xFFFFFFFFFFFFFFFF DUP2 GT ISZERO PUSH2 0x23A5 JUMPI PUSH1 0x0 DUP1 REVERT JUMPDEST PUSH2 0x23B1 DUP9 DUP3 DUP10 ADD PUSH2 0x20A1 JUMP JUMPDEST SWAP6 POP POP PUSH1 0x20 DUP7 ADD CALLDATALOAD PUSH8 0xFFFFFFFFFFFFFFFF DUP2 GT ISZERO PUSH2 0x23CE JUMPI PUSH1 0x0 DUP1 REVERT JUMPDEST PUSH2 0x23DA DUP9 DUP3 DUP10 ADD PUSH2 0x21DA JUMP JUMPDEST SWAP5 POP POP PUSH1 0x40 DUP7 ADD CALLDATALOAD PUSH8 0xFFFFFFFFFFFFFFFF DUP2 GT ISZERO PUSH2 0x23F7 JUMPI PUSH1 0x0 DUP1 REVERT JUMPDEST PUSH2 0x2403 DUP9 DUP3 DUP10 ADD PUSH2 0x217D JUMP JUMPDEST SWAP4 POP POP PUSH1 0x60 DUP7 ADD CALLDATALOAD PUSH8 0xFFFFFFFFFFFFFFFF DUP2 GT ISZERO PUSH2 0x2420 JUMPI PUSH1 0x0 DUP1 REVERT JUMPDEST PUSH2 0x242C DUP9 DUP3 DUP10 ADD PUSH2 0x2120 JUMP JUMPDEST SWAP3 POP POP PUSH1 0x80 DUP7 ADD CALLDATALOAD PUSH8 0xFFFFFFFFFFFFFFFF DUP2 GT ISZERO PUSH2 0x2449 JUMPI PUSH1 0x0 DUP1 REVERT JUMPDEST PUSH2 0x2455 DUP9 DUP3 DUP10 ADD PUSH2 0x2276 JUMP JUMPDEST SWAP2 POP POP SWAP3 SWAP6 POP SWAP3 SWAP6 SWAP1 SWAP4 POP JUMP JUMPDEST PUSH1 0x0 PUSH1 0x20 DUP3 DUP5 SUB SLT ISZERO PUSH2 0x2474 JUMPI PUSH1 0x0 DUP1 REVERT JUMPDEST PUSH1 0x0 PUSH2 0x2334 DUP5 DUP5 PUSH2 0x2255 JUMP JUMPDEST PUSH1 0x0 PUSH1 0x20 DUP3 DUP5 SUB SLT ISZERO PUSH2 0x2492 JUMPI PUSH1 0x0 DUP1 REVERT JUMPDEST PUSH1 0x0 PUSH2 0x2334 DUP5 DUP5 PUSH2 0x226B JUMP JUMPDEST PUSH1 0x0 PUSH1 0x20 DUP3 DUP5 SUB SLT ISZERO PUSH2 0x24B0 JUMPI PUSH1 0x0 DUP1 REVERT JUMPDEST DUP2 MLOAD PUSH8 0xFFFFFFFFFFFFFFFF DUP2 GT ISZERO PUSH2 0x24C7 JUMPI PUSH1 0x0 DUP1 REVERT JUMPDEST PUSH2 0x2334 DUP5 DUP3 DUP6 ADD PUSH2 0x22C5 JUMP JUMPDEST PUSH1 0x0 PUSH1 0x20 DUP3 DUP5 SUB SLT ISZERO PUSH2 0x24E5 JUMPI PUSH1 0x0 DUP1 REVERT JUMPDEST PUSH1 0x0 PUSH2 0x2334 DUP5 DUP5 PUSH2 0x2260 JUMP JUMPDEST PUSH1 0x0 DUP1 PUSH1 0x40 DUP4 DUP6 SUB SLT ISZERO PUSH2 0x2504 JUMPI PUSH1 0x0 DUP1 REVERT JUMPDEST PUSH1 0x0 PUSH2 0x2510 DUP6 DUP6 PUSH2 0x2260 JUMP JUMPDEST SWAP3 POP POP PUSH1 0x20 PUSH2 0x236C DUP6 DUP3 DUP7 ADD PUSH2 0x2096 JUMP JUMPDEST PUSH1 0x0 DUP1 PUSH1 0x40 DUP4 DUP6 SUB SLT ISZERO PUSH2 0x2534 JUMPI PUSH1 0x0 DUP1 REVERT JUMPDEST PUSH1 0x0 PUSH2 0x2540 DUP6 DUP6 PUSH2 0x2260 JUMP JUMPDEST SWAP3 POP POP PUSH1 0x20 PUSH2 0x236C DUP6 DUP3 DUP7 ADD PUSH2 0x224A JUMP JUMPDEST PUSH1 0x0 DUP1 PUSH1 0x0 DUP1 PUSH1 0x0 PUSH1 0xA0 DUP7 DUP9 SUB SLT ISZERO PUSH2 0x2569 JUMPI PUSH1 0x0 DUP1 REVERT JUMPDEST PUSH1 0x0 PUSH2 0x2575 DUP9 DUP9 PUSH2 0x2260 JUMP JUMPDEST SWAP6 POP POP PUSH1 0x20 PUSH2 0x2586 DUP9 DUP3 DUP10 ADD PUSH2 0x224A JUMP JUMPDEST SWAP5 POP POP PUSH1 0x40 PUSH2 0x2597 DUP9 DUP3 DUP10 ADD PUSH2 0x230B JUMP JUMPDEST SWAP4 POP POP PUSH1 0x60 PUSH2 0x25A8 DUP9 DUP3 DUP10 ADD PUSH2 0x2260 JUMP JUMPDEST SWAP3 POP POP PUSH1 0x80 PUSH2 0x2455 DUP9 DUP3 DUP10 ADD PUSH2 0x2260 JUMP JUMPDEST PUSH1 0x0 PUSH2 0x25C5 DUP4 DUP4 PUSH2 0x25F4 JUMP JUMPDEST POP POP PUSH1 0x20 ADD SWAP1 JUMP JUMPDEST PUSH1 0x0 PUSH2 0x1BEC DUP4 DUP4 PUSH2 0x2796 JUMP JUMPDEST PUSH1 0x0 PUSH2 0x25C5 DUP4 DUP4 PUSH2 0x277C JUMP JUMPDEST PUSH2 0x25EE DUP2 PUSH2 0x3819 JUMP JUMPDEST DUP3 MSTORE POP POP JUMP JUMPDEST PUSH2 0x25EE DUP2 PUSH2 0x37ED JUMP JUMPDEST PUSH1 0x0 PUSH2 0x2608 DUP3 PUSH2 0x37E0 JUMP JUMPDEST PUSH2 0x2612 DUP2 DUP6 PUSH2 0x37E4 JUMP JUMPDEST SWAP4 POP PUSH2 0x261D DUP4 PUSH2 0x37CE JUMP JUMPDEST DUP1 PUSH1 0x0 JUMPDEST DUP4 DUP2 LT ISZERO PUSH2 0x264B JUMPI DUP2 MLOAD PUSH2 0x2635 DUP9 DUP3 PUSH2 0x25B9 JUMP JUMPDEST SWAP8 POP PUSH2 0x2640 DUP4 PUSH2 0x37CE JUMP JUMPDEST SWAP3 POP POP PUSH1 0x1 ADD PUSH2 0x2621 JUMP JUMPDEST POP SWAP5 SWAP6 SWAP5 POP POP POP POP POP JUMP JUMPDEST PUSH1 0x0 PUSH2 0x2661 DUP3 PUSH2 0x37E0 JUMP JUMPDEST PUSH2 0x266B DUP2 DUP6 PUSH2 0x37E4 JUMP JUMPDEST SWAP4 POP DUP4 PUSH1 0x20 DUP3 MUL DUP6 ADD PUSH2 0x267D DUP6 PUSH2 0x37CE JUMP JUMPDEST DUP1 PUSH1 0x0 JUMPDEST DUP6 DUP2 LT ISZERO PUSH2 0x26B7 JUMPI DUP5 DUP5 SUB DUP10 MSTORE DUP2 MLOAD PUSH2 0x269A DUP6 DUP3 PUSH2 0x25CD JUMP JUMPDEST SWAP5 POP PUSH2 0x26A5 DUP4 PUSH2 0x37CE JUMP JUMPDEST PUSH1 0x20 SWAP11 SWAP1 SWAP11 ADD SWAP10 SWAP3 POP POP PUSH1 0x1 ADD PUSH2 0x2681 JUMP JUMPDEST POP SWAP2 SWAP8 SWAP7 POP POP POP POP POP POP POP JUMP JUMPDEST PUSH1 0x0 PUSH2 0x26CF DUP3 PUSH2 0x37E0 JUMP JUMPDEST PUSH2 0x26D9 DUP2 DUP6 PUSH2 0x37E4 JUMP JUMPDEST SWAP4 POP DUP4 PUSH1 0x20 DUP3 MUL DUP6 ADD PUSH2 0x26EB DUP6 PUSH2 0x37CE JUMP JUMPDEST DUP1 PUSH1 0x0 JUMPDEST DUP6 DUP2 LT ISZERO PUSH2 0x26B7 JUMPI DUP5 DUP5 SUB DUP10 MSTORE DUP2 MLOAD PUSH2 0x2708 DUP6 DUP3 PUSH2 0x25CD JUMP JUMPDEST SWAP5 POP PUSH2 0x2713 DUP4 PUSH2 0x37CE JUMP JUMPDEST PUSH1 0x20 SWAP11 SWAP1 SWAP11 ADD SWAP10 SWAP3 POP POP PUSH1 0x1 ADD PUSH2 0x26EF JUMP JUMPDEST PUSH1 0x0 PUSH2 0x2730 DUP3 PUSH2 0x37E0 JUMP JUMPDEST PUSH2 0x273A DUP2 DUP6 PUSH2 0x37E4 JUMP JUMPDEST SWAP4 POP PUSH2 0x2745 DUP4 PUSH2 0x37CE JUMP JUMPDEST DUP1 PUSH1 0x0 JUMPDEST DUP4 DUP2 LT ISZERO PUSH2 0x264B JUMPI DUP2 MLOAD PUSH2 0x275D DUP9 DUP3 PUSH2 0x25D9 JUMP JUMPDEST SWAP8 POP PUSH2 0x2768 DUP4 PUSH2 0x37CE JUMP JUMPDEST SWAP3 POP POP PUSH1 0x1 ADD PUSH2 0x2749 JUMP JUMPDEST PUSH2 0x25EE DUP2 PUSH2 0x37F8 JUMP JUMPDEST PUSH2 0x25EE DUP2 PUSH2 0x570 JUMP JUMPDEST PUSH2 0x25EE PUSH2 0x2791 DUP3 PUSH2 0x570 JUMP JUMPDEST PUSH2 0x570 JUMP JUMPDEST PUSH1 0x0 PUSH2 0x27A1 DUP3 PUSH2 0x37E0 JUMP JUMPDEST PUSH2 0x27AB DUP2 DUP6 PUSH2 0x37E4 JUMP JUMPDEST SWAP4 POP PUSH2 0x27BB DUP2 DUP6 PUSH1 0x20 DUP7 ADD PUSH2 0x384D JUMP JUMPDEST PUSH2 0x27C4 DUP2 PUSH2 0x3879 JUMP JUMPDEST SWAP1 SWAP4 ADD SWAP4 SWAP3 POP POP POP JUMP JUMPDEST PUSH1 0x0 DUP2 SLOAD PUSH1 0x1 DUP2 AND PUSH1 0x0 DUP2 EQ PUSH2 0x27EB JUMPI PUSH1 0x1 DUP2 EQ PUSH2 0x2811 JUMPI PUSH2 0x2850 JUMP JUMPDEST PUSH1 0x7F PUSH1 0x2 DUP4 DIV AND PUSH2 0x27FC DUP2 DUP8 PUSH2 0x37E4 JUMP JUMPDEST PUSH1 0xFF NOT DUP5 AND DUP2 MSTORE SWAP6 POP POP PUSH1 0x20 DUP6 ADD SWAP3 POP PUSH2 0x2850 JUMP JUMPDEST PUSH1 0x2 DUP3 DIV PUSH2 0x281F DUP2 DUP8 PUSH2 0x37E4 JUMP JUMPDEST SWAP6 POP PUSH2 0x282A DUP6 PUSH2 0x37D4 JUMP JUMPDEST PUSH1 0x0 JUMPDEST DUP3 DUP2 LT ISZERO PUSH2 0x2849 JUMPI DUP2 SLOAD DUP9 DUP3 ADD MSTORE PUSH1 0x1 SWAP1 SWAP2 ADD SWAP1 PUSH1 0x20 ADD PUSH2 0x282D JUMP JUMPDEST DUP8 ADD SWAP5 POP POP POP JUMPDEST POP POP SWAP3 SWAP2 POP POP JUMP JUMPDEST PUSH2 0x25EE DUP2 PUSH2 0x3820 JUMP JUMPDEST PUSH2 0x25EE DUP2 PUSH2 0x382B JUMP JUMPDEST PUSH2 0x25EE DUP2 PUSH2 0x3836 JUMP JUMPDEST PUSH1 0x0 PUSH2 0x2880 PUSH1 0x5B DUP4 PUSH2 0x37E4 JUMP JUMPDEST PUSH32 0x476F7665726E6F72416C706861425A583A3A70726F706F73653A206F6E65206C DUP2 MSTORE PUSH32 0x6976652070726F706F73616C207065722070726F706F7365722C20666F756E64 PUSH1 0x20 DUP3 ADD MSTORE PUSH32 0x20616E20616C7265616479206163746976652070726F706F73616C0000000000 PUSH1 0x40 DUP3 ADD MSTORE PUSH1 0x60 ADD SWAP3 SWAP2 POP POP JUMP JUMPDEST PUSH1 0x0 PUSH2 0x2905 PUSH1 0x3F DUP4 PUSH2 0x37E4 JUMP JUMPDEST PUSH32 0x476F7665726E6F72416C706861425A583A3A5F5F6368616E6765477561726469 DUP2 MSTORE PUSH32 0x616E3A2073656E646572206D75737420626520676F7620677561726469616E00 PUSH1 0x20 DUP3 ADD MSTORE PUSH1 0x40 ADD SWAP3 SWAP2 POP POP JUMP JUMPDEST PUSH1 0x0 PUSH2 0x2964 PUSH1 0x32 DUP4 PUSH2 0x37E4 JUMP JUMPDEST PUSH32 0x476F7665726E6F72416C706861425A583A3A63616E63656C3A2070726F706F73 DUP2 MSTORE PUSH18 0x195C8818589BDD99481D1A1C995CDA1BDB19 PUSH1 0x72 SHL PUSH1 0x20 DUP3 ADD MSTORE PUSH1 0x40 ADD SWAP3 SWAP2 POP POP JUMP JUMPDEST PUSH1 0x0 PUSH2 0x29B8 PUSH1 0x2F DUP4 PUSH2 0x37E4 JUMP JUMPDEST PUSH32 0x476F7665726E6F72416C706861425A583A3A5F5F6368616E6765477561726469 DUP2 MSTORE PUSH15 0x185B8E881B9BDD08185B1B1BDDD959 PUSH1 0x8A SHL PUSH1 0x20 DUP3 ADD MSTORE PUSH1 0x40 ADD SWAP3 SWAP2 POP POP JUMP JUMPDEST PUSH1 0x0 PUSH2 0x2A09 PUSH1 0x2 DUP4 PUSH2 0xB0A JUMP JUMPDEST PUSH2 0x1901 PUSH1 0xF0 SHL DUP2 MSTORE PUSH1 0x2 ADD SWAP3 SWAP2 POP POP JUMP JUMPDEST PUSH1 0x0 PUSH2 0x2A27 PUSH1 0x32 DUP4 PUSH2 0x37E4 JUMP JUMPDEST PUSH32 0x476F7665726E6F72416C706861425A583A3A63617374566F746542795369673A DUP2 MSTORE PUSH18 0x20696E76616C6964207369676E6174757265 PUSH1 0x70 SHL PUSH1 0x20 DUP3 ADD MSTORE PUSH1 0x40 ADD SWAP3 SWAP2 POP POP JUMP JUMPDEST PUSH1 0x0 PUSH2 0x2A7B PUSH1 0x39 DUP4 PUSH2 0x37E4 JUMP JUMPDEST PUSH32 0x476F7665726E6F72416C706861425A583A3A63616E63656C3A2063616E6E6F74 DUP2 MSTORE PUSH32 0x2063616E63656C2065786563757465642070726F706F73616C00000000000000 PUSH1 0x20 DUP3 ADD MSTORE PUSH1 0x40 ADD SWAP3 SWAP2 POP POP JUMP JUMPDEST PUSH1 0x0 PUSH2 0x2ADA PUSH1 0x3C DUP4 PUSH2 0x37E4 JUMP JUMPDEST PUSH32 0x476F7665726E6F72416C706861425A583A3A5F5F61636365707441646D696E3A DUP2 MSTORE PUSH32 0x2073656E646572206D75737420626520676F7620677561726469616E00000000 PUSH1 0x20 DUP3 ADD MSTORE PUSH1 0x40 ADD SWAP3 SWAP2 POP POP JUMP JUMPDEST PUSH1 0x0 PUSH2 0x2B39 PUSH1 0x18 DUP4 PUSH2 0x37E4 JUMP JUMPDEST PUSH32 0x73657450656E64696E6741646D696E2861646472657373290000000000000000 DUP2 MSTORE PUSH1 0x20 ADD SWAP3 SWAP2 POP POP JUMP JUMPDEST PUSH1 0x0 PUSH2 0x2B72 PUSH1 0x47 DUP4 PUSH2 0x37E4 JUMP JUMPDEST PUSH32 0x476F7665726E6F72416C706861425A583A3A5F71756575654F72526576657274 DUP2 MSTORE PUSH32 0x3A2070726F706F73616C20616374696F6E20616C726561647920717565756564 PUSH1 0x20 DUP3 ADD MSTORE PUSH7 0x20617420657461 PUSH1 0xC8 SHL PUSH1 0x40 DUP3 ADD MSTORE PUSH1 0x60 ADD SWAP3 SWAP2 POP POP JUMP JUMPDEST PUSH1 0x0 PUSH2 0x2BE1 PUSH1 0x4F DUP4 PUSH2 0x37E4 JUMP JUMPDEST PUSH32 0x476F7665726E6F72416C706861425A583A3A5F5F657865637574655365745469 DUP2 MSTORE PUSH32 0x6D656C6F636B50656E64696E6741646D696E3A2073656E646572206D75737420 PUSH1 0x20 DUP3 ADD MSTORE PUSH15 0x31329033B7BB1033BAB0B93234B0B7 PUSH1 0x89 SHL PUSH1 0x40 DUP3 ADD MSTORE PUSH1 0x60 ADD SWAP3 SWAP2 POP POP JUMP JUMPDEST PUSH1 0x0 PUSH2 0x2C58 PUSH1 0x2B DUP4 PUSH2 0x37E4 JUMP JUMPDEST PUSH32 0x476F7665726E6F72416C706861425A583A3A70726F706F73653A20746F6F206D DUP2 MSTORE PUSH11 0x616E7920616374696F6E73 PUSH1 0xA8 SHL PUSH1 0x20 DUP3 ADD MSTORE PUSH1 0x40 ADD SWAP3 SWAP2 POP POP JUMP JUMPDEST PUSH1 0x0 PUSH2 0x2CA5 PUSH1 0x47 DUP4 PUSH2 0x37E4 JUMP JUMPDEST PUSH32 0x476F7665726E6F72416C706861425A583A3A70726F706F73653A2070726F706F DUP2 MSTORE PUSH32 0x73616C2066756E6374696F6E20696E666F726D6174696F6E206172697479206D PUSH1 0x20 DUP3 ADD MSTORE PUSH7 0xD2E6DAC2E8C6D PUSH1 0xCB SHL PUSH1 0x40 DUP3 ADD MSTORE PUSH1 0x60 ADD SWAP3 SWAP2 POP POP JUMP JUMPDEST PUSH1 0x0 PUSH2 0x2D14 PUSH1 0x4D DUP4 PUSH2 0x37E4 JUMP JUMPDEST PUSH32 0x476F7665726E6F72416C706861425A583A3A5F5F717565756553657454696D65 DUP2 MSTORE PUSH32 0x6C6F636B50656E64696E6741646D696E3A2073656E646572206D757374206265 PUSH1 0x20 DUP3 ADD MSTORE PUSH13 0x1033B7BB1033BAB0B93234B0B7 PUSH1 0x99 SHL PUSH1 0x40 DUP3 ADD MSTORE PUSH1 0x60 ADD SWAP3 SWAP2 POP POP JUMP JUMPDEST PUSH1 0x0 PUSH2 0x2D89 PUSH1 0x2D DUP4 PUSH2 0x37E4 JUMP JUMPDEST PUSH32 0x476F7665726E6F72416C706861425A583A3A5F63617374566F74653A20766F74 DUP2 MSTORE PUSH13 0x1A5B99C81A5CC818DB1BDCD959 PUSH1 0x9A SHL PUSH1 0x20 DUP3 ADD MSTORE PUSH1 0x40 ADD SWAP3 SWAP2 POP POP JUMP JUMPDEST PUSH1 0x0 PUSH2 0x2DD8 PUSH1 0x42 DUP4 PUSH2 0x37E4 JUMP JUMPDEST PUSH32 0x476F7665726E6F72416C706861425A583A3A70726F706F73653A2070726F706F DUP2 MSTORE PUSH32 0x73657220766F7465732062656C6F772070726F706F73616C207468726573686F PUSH1 0x20 DUP3 ADD MSTORE PUSH2 0x1B19 PUSH1 0xF2 SHL PUSH1 0x40 DUP3 ADD MSTORE PUSH1 0x60 ADD SWAP3 SWAP2 POP POP JUMP JUMPDEST PUSH1 0x0 PUSH2 0x2E42 PUSH1 0x11 DUP4 PUSH2 0x37E4 JUMP JUMPDEST PUSH17 0x6164646974696F6E206F766572666C6F77 PUSH1 0x78 SHL DUP2 MSTORE PUSH1 0x20 ADD SWAP3 SWAP2 POP POP JUMP JUMPDEST PUSH1 0x0 PUSH2 0x2E6F PUSH1 0x43 DUP4 PUSH2 0xB0A JUMP JUMPDEST PUSH32 0x454950373132446F6D61696E28737472696E67206E616D652C75696E74323536 DUP2 MSTORE PUSH32 0x20636861696E49642C6164647265737320766572696679696E67436F6E747261 PUSH1 0x20 DUP3 ADD MSTORE PUSH3 0x637429 PUSH1 0xE8 SHL PUSH1 0x40 DUP3 ADD MSTORE PUSH1 0x43 ADD SWAP3 SWAP2 POP POP JUMP JUMPDEST PUSH1 0x0 PUSH2 0x2EDA PUSH1 0x27 DUP4 PUSH2 0xB0A JUMP JUMPDEST PUSH32 0x42616C6C6F742875696E743235362070726F706F73616C49642C626F6F6C2073 DUP2 MSTORE PUSH7 0x7570706F727429 PUSH1 0xC8 SHL PUSH1 0x20 DUP3 ADD MSTORE PUSH1 0x27 ADD SWAP3 SWAP2 POP POP JUMP JUMPDEST PUSH1 0x0 PUSH2 0x2F23 PUSH1 0x47 DUP4 PUSH2 0x37E4 JUMP JUMPDEST PUSH32 0x476F7665726E6F72416C706861425A583A3A71756575653A2070726F706F7361 DUP2 MSTORE PUSH32 0x6C2063616E206F6E6C7920626520717565756564206966206974206973207375 PUSH1 0x20 DUP3 ADD MSTORE PUSH7 0x18D8D959591959 PUSH1 0xCA SHL PUSH1 0x40 DUP3 ADD MSTORE PUSH1 0x60 ADD SWAP3 SWAP2 POP POP JUMP JUMPDEST PUSH1 0x0 PUSH2 0x2F92 PUSH1 0x5C DUP4 PUSH2 0x37E4 JUMP JUMPDEST PUSH32 0x476F7665726E6F72416C706861425A583A3A70726F706F73653A206F6E65206C DUP2 MSTORE PUSH32 0x6976652070726F706F73616C207065722070726F706F7365722C20666F756E64 PUSH1 0x20 DUP3 ADD MSTORE PUSH32 0x20616E20616C72656164792070656E64696E672070726F706F73616C00000000 PUSH1 0x40 DUP3 ADD MSTORE PUSH1 0x60 ADD SWAP3 SWAP2 POP POP JUMP JUMPDEST PUSH1 0x0 PUSH2 0x3017 PUSH1 0x48 DUP4 PUSH2 0x37E4 JUMP JUMPDEST PUSH32 0x476F7665726E6F72416C706861425A583A3A657865637574653A2070726F706F DUP2 MSTORE PUSH32 0x73616C2063616E206F6E6C792062652065786563757465642069662069742069 PUSH1 0x20 DUP3 ADD MSTORE PUSH8 0x1CC81C5D595D5959 PUSH1 0xC2 SHL PUSH1 0x40 DUP3 ADD MSTORE PUSH1 0x60 ADD SWAP3 SWAP2 POP POP JUMP JUMPDEST PUSH1 0x0 PUSH2 0x3087 PUSH1 0x39 DUP4 PUSH2 0x37E4 JUMP JUMPDEST PUSH32 0x476F7665726E6F72416C706861425A583A3A5F5F61626469636174653A207365 DUP2 MSTORE PUSH32 0x6E646572206D75737420626520676F7620677561726469616E00000000000000 PUSH1 0x20 DUP3 ADD MSTORE PUSH1 0x40 ADD SWAP3 SWAP2 POP POP JUMP JUMPDEST PUSH1 0x0 PUSH2 0x30E6 PUSH1 0x2F DUP4 PUSH2 0x37E4 JUMP JUMPDEST PUSH32 0x476F7665726E6F72416C706861425A583A3A70726F706F73653A206D75737420 DUP2 MSTORE PUSH15 0x70726F7669646520616374696F6E73 PUSH1 0x88 SHL PUSH1 0x20 DUP3 ADD MSTORE PUSH1 0x40 ADD SWAP3 SWAP2 POP POP JUMP JUMPDEST PUSH1 0x0 PUSH2 0x3137 PUSH1 0x30 DUP4 PUSH2 0x37E4 JUMP JUMPDEST PUSH32 0x476F7665726E6F72416C706861425A583A3A5F63617374566F74653A20766F74 DUP2 MSTORE PUSH16 0x195C88185B1C9958591E481D9BDD1959 PUSH1 0x82 SHL PUSH1 0x20 DUP3 ADD MSTORE PUSH1 0x40 ADD SWAP3 SWAP2 POP POP JUMP JUMPDEST PUSH1 0x0 PUSH2 0x3189 PUSH1 0x2C DUP4 PUSH2 0x37E4 JUMP JUMPDEST PUSH32 0x476F7665726E6F72416C706861425A583A3A73746174653A20696E76616C6964 DUP2 MSTORE PUSH12 0x81C1C9BDC1BDCD85B081A59 PUSH1 0xA2 SHL PUSH1 0x20 DUP3 ADD MSTORE PUSH1 0x40 ADD SWAP3 SWAP2 POP POP JUMP JUMPDEST DUP1 MLOAD PUSH1 0x60 DUP4 ADD SWAP1 PUSH2 0x31DB DUP5 DUP3 PUSH2 0x2773 JUMP JUMPDEST POP PUSH1 0x20 DUP3 ADD MLOAD PUSH2 0x31EE PUSH1 0x20 DUP6 ADD DUP3 PUSH2 0x2773 JUMP JUMPDEST POP PUSH1 0x40 DUP3 ADD MLOAD PUSH2 0x1160 PUSH1 0x40 DUP6 ADD DUP3 PUSH2 0x277C JUMP JUMPDEST PUSH2 0x25EE DUP2 PUSH2 0x3813 JUMP JUMPDEST PUSH1 0x0 PUSH2 0x3215 DUP3 PUSH2 0x29FC JUMP JUMPDEST SWAP2 POP PUSH2 0x3221 DUP3 DUP6 PUSH2 0x2785 JUMP JUMPDEST PUSH1 0x20 DUP3 ADD SWAP2 POP PUSH2 0x3231 DUP3 DUP5 PUSH2 0x2785 JUMP JUMPDEST POP PUSH1 0x20 ADD SWAP3 SWAP2 POP POP JUMP JUMPDEST PUSH1 0x0 PUSH2 0x1857 DUP3 PUSH2 0x2E62 JUMP JUMPDEST PUSH1 0x0 PUSH2 0x1857 DUP3 PUSH2 0x2ECD JUMP JUMPDEST PUSH1 0x20 DUP2 ADD PUSH2 0x1857 DUP3 DUP5 PUSH2 0x25F4 JUMP JUMPDEST PUSH1 0x40 DUP2 ADD PUSH2 0x326D DUP3 DUP6 PUSH2 0x25E5 JUMP JUMPDEST PUSH2 0x1BEC PUSH1 0x20 DUP4 ADD DUP5 PUSH2 0x277C JUMP JUMPDEST PUSH1 0xA0 DUP2 ADD PUSH2 0x3288 DUP3 DUP8 PUSH2 0x25F4 JUMP JUMPDEST PUSH2 0x3295 PUSH1 0x20 DUP4 ADD DUP7 PUSH2 0x286A JUMP JUMPDEST DUP2 DUP2 SUB PUSH1 0x40 DUP4 ADD MSTORE PUSH2 0x32A6 DUP2 PUSH2 0x2B2C JUMP JUMPDEST SWAP1 POP DUP2 DUP2 SUB PUSH1 0x60 DUP4 ADD MSTORE PUSH2 0x32BA DUP2 DUP6 PUSH2 0x2796 JUMP JUMPDEST SWAP1 POP PUSH2 0x1565 PUSH1 0x80 DUP4 ADD DUP5 PUSH2 0x277C JUMP JUMPDEST PUSH1 0x40 DUP2 ADD PUSH2 0x326D DUP3 DUP6 PUSH2 0x25F4 JUMP JUMPDEST PUSH1 0x80 DUP2 ADD PUSH2 0x32E5 DUP3 DUP8 PUSH2 0x25F4 JUMP JUMPDEST PUSH2 0x32F2 PUSH1 0x20 DUP4 ADD DUP7 PUSH2 0x277C JUMP JUMPDEST PUSH2 0x32FF PUSH1 0x40 DUP4 ADD DUP6 PUSH2 0x2773 JUMP JUMPDEST PUSH2 0x1565 PUSH1 0x60 DUP4 ADD DUP5 PUSH2 0x277C JUMP JUMPDEST PUSH1 0xA0 DUP2 ADD PUSH2 0x331A DUP3 DUP9 PUSH2 0x25F4 JUMP JUMPDEST PUSH2 0x3327 PUSH1 0x20 DUP4 ADD DUP8 PUSH2 0x277C JUMP JUMPDEST DUP2 DUP2 SUB PUSH1 0x40 DUP4 ADD MSTORE PUSH2 0x3339 DUP2 DUP7 PUSH2 0x2796 JUMP JUMPDEST SWAP1 POP DUP2 DUP2 SUB PUSH1 0x60 DUP4 ADD MSTORE PUSH2 0x334D DUP2 DUP6 PUSH2 0x2796 JUMP JUMPDEST SWAP1 POP PUSH2 0x335C PUSH1 0x80 DUP4 ADD DUP5 PUSH2 0x277C JUMP JUMPDEST SWAP7 SWAP6 POP POP POP POP POP POP JUMP JUMPDEST PUSH1 0xA0 DUP2 ADD PUSH2 0x3374 DUP3 DUP9 PUSH2 0x25F4 JUMP JUMPDEST PUSH2 0x3381 PUSH1 0x20 DUP4 ADD DUP8 PUSH2 0x277C JUMP JUMPDEST DUP2 DUP2 SUB PUSH1 0x40 DUP4 ADD MSTORE PUSH2 0x3393 DUP2 DUP7 PUSH2 0x27CE JUMP JUMPDEST SWAP1 POP DUP2 DUP2 SUB PUSH1 0x60 DUP4 ADD MSTORE PUSH2 0x334D DUP2 DUP6 PUSH2 0x27CE JUMP JUMPDEST PUSH1 0x80 DUP1 DUP3 MSTORE DUP2 ADD PUSH2 0x33B8 DUP2 DUP8 PUSH2 0x25FD JUMP JUMPDEST SWAP1 POP DUP2 DUP2 SUB PUSH1 0x20 DUP4 ADD MSTORE PUSH2 0x33CC DUP2 DUP7 PUSH2 0x2725 JUMP JUMPDEST SWAP1 POP DUP2 DUP2 SUB PUSH1 0x40 DUP4 ADD MSTORE PUSH2 0x33E0 DUP2 DUP6 PUSH2 0x26C4 JUMP JUMPDEST SWAP1 POP DUP2 DUP2 SUB PUSH1 0x60 DUP4 ADD MSTORE PUSH2 0x335C DUP2 DUP5 PUSH2 0x2656 JUMP JUMPDEST PUSH1 0x20 DUP2 ADD PUSH2 0x1857 DUP3 DUP5 PUSH2 0x277C JUMP JUMPDEST PUSH1 0x80 DUP2 ADD PUSH2 0x3410 DUP3 DUP8 PUSH2 0x277C JUMP JUMPDEST PUSH2 0x341D PUSH1 0x20 DUP4 ADD DUP7 PUSH2 0x277C JUMP JUMPDEST PUSH2 0x342A PUSH1 0x40 DUP4 ADD DUP6 PUSH2 0x277C JUMP JUMPDEST PUSH2 0x1565 PUSH1 0x60 DUP4 ADD DUP5 PUSH2 0x25F4 JUMP JUMPDEST PUSH1 0x60 DUP2 ADD PUSH2 0x3445 DUP3 DUP7 PUSH2 0x277C JUMP JUMPDEST PUSH2 0x3452 PUSH1 0x20 DUP4 ADD DUP6 PUSH2 0x277C JUMP JUMPDEST PUSH2 0x2334 PUSH1 0x40 DUP4 ADD DUP5 PUSH2 0x2773 JUMP JUMPDEST PUSH1 0x80 DUP2 ADD PUSH2 0x346D DUP3 DUP8 PUSH2 0x277C JUMP JUMPDEST PUSH2 0x347A PUSH1 0x20 DUP4 ADD DUP7 PUSH2 0x3201 JUMP JUMPDEST PUSH2 0x32FF PUSH1 0x40 DUP4 ADD DUP6 PUSH2 0x277C JUMP JUMPDEST PUSH1 0x20 DUP2 ADD PUSH2 0x1857 DUP3 DUP5 PUSH2 0x2858 JUMP JUMPDEST PUSH1 0x20 DUP2 ADD PUSH2 0x1857 DUP3 DUP5 PUSH2 0x2861 JUMP JUMPDEST PUSH1 0x20 DUP1 DUP3 MSTORE DUP2 ADD PUSH2 0x1BEC DUP2 DUP5 PUSH2 0x2796 JUMP JUMPDEST PUSH1 0x20 DUP1 DUP3 MSTORE DUP2 ADD PUSH2 0x1857 DUP2 PUSH2 0x2873 JUMP JUMPDEST PUSH1 0x20 DUP1 DUP3 MSTORE DUP2 ADD PUSH2 0x1857 DUP2 PUSH2 0x28F8 JUMP JUMPDEST PUSH1 0x20 DUP1 DUP3 MSTORE DUP2 ADD PUSH2 0x1857 DUP2 PUSH2 0x2957 JUMP JUMPDEST PUSH1 0x20 DUP1 DUP3 MSTORE DUP2 ADD PUSH2 0x1857 DUP2 PUSH2 0x29AB JUMP JUMPDEST PUSH1 0x20 DUP1 DUP3 MSTORE DUP2 ADD PUSH2 0x1857 DUP2 PUSH2 0x2A1A JUMP JUMPDEST PUSH1 0x20 DUP1 DUP3 MSTORE DUP2 ADD PUSH2 0x1857 DUP2 PUSH2 0x2A6E JUMP JUMPDEST PUSH1 0x20 DUP1 DUP3 MSTORE DUP2 ADD PUSH2 0x1857 DUP2 PUSH2 0x2ACD JUMP JUMPDEST PUSH1 0x20 DUP1 DUP3 MSTORE DUP2 ADD PUSH2 0x1857 DUP2 PUSH2 0x2B65 JUMP JUMPDEST PUSH1 0x20 DUP1 DUP3 MSTORE DUP2 ADD PUSH2 0x1857 DUP2 PUSH2 0x2BD4 JUMP JUMPDEST PUSH1 0x20 DUP1 DUP3 MSTORE DUP2 ADD PUSH2 0x1857 DUP2 PUSH2 0x2C4B JUMP JUMPDEST PUSH1 0x20 DUP1 DUP3 MSTORE DUP2 ADD PUSH2 0x1857 DUP2 PUSH2 0x2C98 JUMP JUMPDEST PUSH1 0x20 DUP1 DUP3 MSTORE DUP2 ADD PUSH2 0x1857 DUP2 PUSH2 0x2D07 JUMP JUMPDEST PUSH1 0x20 DUP1 DUP3 MSTORE DUP2 ADD PUSH2 0x1857 DUP2 PUSH2 0x2D7C JUMP JUMPDEST PUSH1 0x20 DUP1 DUP3 MSTORE DUP2 ADD PUSH2 0x1857 DUP2 PUSH2 0x2DCB JUMP JUMPDEST PUSH1 0x20 DUP1 DUP3 MSTORE DUP2 ADD PUSH2 0x1857 DUP2 PUSH2 0x2E35 JUMP JUMPDEST PUSH1 0x20 DUP1 DUP3 MSTORE DUP2 ADD PUSH2 0x1857 DUP2 PUSH2 0x2F16 JUMP JUMPDEST PUSH1 0x20 DUP1 DUP3 MSTORE DUP2 ADD PUSH2 0x1857 DUP2 PUSH2 0x2F85 JUMP JUMPDEST PUSH1 0x20 DUP1 DUP3 MSTORE DUP2 ADD PUSH2 0x1857 DUP2 PUSH2 0x300A JUMP JUMPDEST PUSH1 0x20 DUP1 DUP3 MSTORE DUP2 ADD PUSH2 0x1857 DUP2 PUSH2 0x307A JUMP JUMPDEST PUSH1 0x20 DUP1 DUP3 MSTORE DUP2 ADD PUSH2 0x1857 DUP2 PUSH2 0x30D9 JUMP JUMPDEST PUSH1 0x20 DUP1 DUP3 MSTORE DUP2 ADD PUSH2 0x1857 DUP2 PUSH2 0x312A JUMP JUMPDEST PUSH1 0x20 DUP1 DUP3 MSTORE DUP2 ADD PUSH2 0x1857 DUP2 PUSH2 0x317C JUMP JUMPDEST PUSH1 0x60 DUP2 ADD PUSH2 0x1857 DUP3 DUP5 PUSH2 0x31CA JUMP JUMPDEST PUSH2 0x120 DUP2 ADD PUSH2 0x3631 DUP3 DUP13 PUSH2 0x277C JUMP JUMPDEST PUSH2 0x363E PUSH1 0x20 DUP4 ADD DUP12 PUSH2 0x25E5 JUMP JUMPDEST DUP2 DUP2 SUB PUSH1 0x40 DUP4 ADD MSTORE PUSH2 0x3650 DUP2 DUP11 PUSH2 0x25FD JUMP JUMPDEST SWAP1 POP DUP2 DUP2 SUB PUSH1 0x60 DUP4 ADD MSTORE PUSH2 0x3664 DUP2 DUP10 PUSH2 0x2725 JUMP JUMPDEST SWAP1 POP DUP2 DUP2 SUB PUSH1 0x80 DUP4 ADD MSTORE PUSH2 0x3678 DUP2 DUP9 PUSH2 0x26C4 JUMP JUMPDEST SWAP1 POP DUP2 DUP2 SUB PUSH1 0xA0 DUP4 ADD MSTORE PUSH2 0x368C DUP2 DUP8 PUSH2 0x2656 JUMP JUMPDEST SWAP1 POP PUSH2 0x369B PUSH1 0xC0 DUP4 ADD DUP7 PUSH2 0x277C JUMP JUMPDEST PUSH2 0x36A8 PUSH1 0xE0 DUP4 ADD DUP6 PUSH2 0x277C JUMP JUMPDEST DUP2 DUP2 SUB PUSH2 0x100 DUP4 ADD MSTORE PUSH2 0x36BB DUP2 DUP5 PUSH2 0x2796 JUMP JUMPDEST SWAP12 SWAP11 POP POP POP POP POP POP POP POP POP POP POP JUMP JUMPDEST PUSH2 0x120 DUP2 ADD PUSH2 0x36D9 DUP3 DUP13 PUSH2 0x277C JUMP JUMPDEST PUSH2 0x36E6 PUSH1 0x20 DUP4 ADD DUP12 PUSH2 0x25F4 JUMP JUMPDEST PUSH2 0x36F3 PUSH1 0x40 DUP4 ADD DUP11 PUSH2 0x277C JUMP JUMPDEST PUSH2 0x3700 PUSH1 0x60 DUP4 ADD DUP10 PUSH2 0x277C JUMP JUMPDEST PUSH2 0x370D PUSH1 0x80 DUP4 ADD DUP9 PUSH2 0x277C JUMP JUMPDEST PUSH2 0x371A PUSH1 0xA0 DUP4 ADD DUP8 PUSH2 0x277C JUMP JUMPDEST PUSH2 0x3727 PUSH1 0xC0 DUP4 ADD DUP7 PUSH2 0x277C JUMP JUMPDEST PUSH2 0x3734 PUSH1 0xE0 DUP4 ADD DUP6 PUSH2 0x2773 JUMP JUMPDEST PUSH2 0x3742 PUSH2 0x100 DUP4 ADD DUP5 PUSH2 0x2773 JUMP JUMPDEST SWAP11 SWAP10 POP POP POP POP POP POP POP POP POP POP JUMP JUMPDEST PUSH1 0x40 DUP2 ADD PUSH2 0x326D DUP3 DUP6 PUSH2 0x277C JUMP JUMPDEST PUSH1 0x40 MLOAD DUP2 DUP2 ADD PUSH8 0xFFFFFFFFFFFFFFFF DUP2 GT DUP3 DUP3 LT OR ISZERO PUSH2 0x377D JUMPI PUSH1 0x0 DUP1 REVERT JUMPDEST PUSH1 0x40 MSTORE SWAP2 SWAP1 POP JUMP JUMPDEST PUSH1 0x0 PUSH8 0xFFFFFFFFFFFFFFFF DUP3 GT ISZERO PUSH2 0x379C JUMPI PUSH1 0x0 DUP1 REVERT JUMPDEST POP PUSH1 0x20 SWAP1 DUP2 MUL ADD SWAP1 JUMP JUMPDEST PUSH1 0x0 PUSH8 0xFFFFFFFFFFFFFFFF DUP3 GT ISZERO PUSH2 0x37BD JUMPI PUSH1 0x0 DUP1 REVERT JUMPDEST POP PUSH1 0x20 PUSH1 0x1F SWAP2 SWAP1 SWAP2 ADD PUSH1 0x1F NOT AND ADD SWAP1 JUMP JUMPDEST PUSH1 0x20 ADD SWAP1 JUMP JUMPDEST PUSH1 0x0 SWAP1 DUP2 MSTORE PUSH1 0x20 SWAP1 KECCAK256 SWAP1 JUMP JUMPDEST MLOAD SWAP1 JUMP JUMPDEST SWAP1 DUP2 MSTORE PUSH1 0x20 ADD SWAP1 JUMP JUMPDEST PUSH1 0x0 PUSH2 0x1857 DUP3 PUSH2 0x3807 JUMP JUMPDEST ISZERO ISZERO SWAP1 JUMP JUMPDEST DUP1 PUSH2 0xB0A DUP2 PUSH2 0x3883 JUMP JUMPDEST PUSH1 0x1 PUSH1 0x1 PUSH1 0xA0 SHL SUB AND SWAP1 JUMP JUMPDEST PUSH1 0xFF AND SWAP1 JUMP JUMPDEST PUSH1 0x0 PUSH2 0x1857 DUP3 JUMPDEST PUSH1 0x0 PUSH2 0x1857 DUP3 PUSH2 0x37ED JUMP JUMPDEST PUSH1 0x0 PUSH2 0x1857 DUP3 PUSH2 0x37FD JUMP JUMPDEST PUSH1 0x0 PUSH2 0x1857 DUP3 PUSH2 0x570 JUMP JUMPDEST DUP3 DUP2 DUP4 CALLDATACOPY POP PUSH1 0x0 SWAP2 ADD MSTORE JUMP JUMPDEST PUSH1 0x0 JUMPDEST DUP4 DUP2 LT ISZERO PUSH2 0x3868 JUMPI DUP2 DUP2 ADD MLOAD DUP4 DUP3 ADD MSTORE PUSH1 0x20 ADD PUSH2 0x3850 JUMP JUMPDEST DUP4 DUP2 GT ISZERO PUSH2 0x1160 JUMPI POP POP PUSH1 0x0 SWAP2 ADD MSTORE JUMP JUMPDEST PUSH1 0x1F ADD PUSH1 0x1F NOT AND SWAP1 JUMP JUMPDEST PUSH1 0x8 DUP2 LT PUSH2 0x2093 JUMPI INVALID JUMPDEST PUSH2 0x3896 DUP2 PUSH2 0x37ED JUMP JUMPDEST DUP2 EQ PUSH2 0x2093 JUMPI PUSH1 0x0 DUP1 REVERT JUMPDEST PUSH2 0x3896 DUP2 PUSH2 0x37F8 JUMP JUMPDEST PUSH2 0x3896 DUP2 PUSH2 0x570 JUMP JUMPDEST PUSH2 0x3896 DUP2 PUSH2 0x3813 JUMP INVALID LOG3 PUSH6 0x627A7A723158 KECCAK256 PUSH20 0xA6471FB12372A763F9ECA23AA13B5EA94B4F774D 0x4D 0xB0 0x2F GT SWAP6 SMOD PC DUP11 SHR 0x25 0x27 PUSH13 0x6578706572696D656E74616CF5 PUSH5 0x736F6C6343 STOP SDIV GT STOP BLOCKHASH ",
  "sha1": "06fe953c97e31a03ed070df6d518dda1ee00eef5",
  "source": "\npragma solidity 0.5.17;\npragma experimental ABIEncoderV2;\n\ncontract GovernorAlphaBZX {\n    /// @notice The name of this contract\n    string public constant name = \"bZx Governor Alpha\";\n\n    /// @notice The number of votes in support of a proposal required in order for a quorum to be reached and for a vote to succeed\n    function quorumVotes() public pure returns (uint) { return 41200000e18; } // 41,200,000 = 4% of BZRX\n\n    /// @notice The number of votes required in order for a voter to become a proposer\n    function proposalThreshold() public pure returns (uint) { return 10300000e18; } // 10,300,000 = 1% of BZRX\n\n    /// @notice The maximum number of actions that can be included in a proposal\n    function proposalMaxOperations() public pure returns (uint) { return 10; } // 10 actions\n\n    /// @notice The delay before voting on a proposal may take place, once proposed\n    function votingDelay() public pure returns (uint) { return 1; } // 1 block\n\n    /// @notice The duration of voting on a proposal, in blocks\n    function votingPeriod() public pure returns (uint) { return 17280; } // ~3 days in blocks (assuming 15s blocks)\n\n    /// @notice The address of the protocol Timelock\n    TimelockInterface public constant timelock = TimelockInterface(0xBB536EB24Fb89B544d4Bd9e9F1f34D9Fd902bb96);\n\n    /// @notice The address of the staking contract\n    StakingInterface public staking;\n\n    /// @notice The address of the Governor Guardian\n    address public guardian;\n\n    /// @notice The total number of proposals\n    uint public proposalCount;\n\n    struct Proposal {\n        /// @notice Unique id for looking up a proposal\n        uint id;\n\n        /// @notice Creator of the proposal\n        address proposer;\n\n        /// @notice The timestamp that the proposal will be available for execution, set once the vote succeeds\n        uint eta;\n\n        /// @notice the ordered list of target addresses for calls to be made\n        address[] targets;\n\n        /// @notice The ordered list of values (i.e. msg.value) to be passed to the calls to be made\n        uint[] values;\n\n        /// @notice The ordered list of function signatures to be called\n        string[] signatures;\n\n        /// @notice The ordered list of calldata to be passed to each call\n        bytes[] calldatas;\n\n        /// @notice The block at which voting begins: holders must delegate their votes prior to this block\n        uint startBlock;\n\n        /// @notice The block at which voting ends: votes must be cast prior to this block\n        uint endBlock;\n\n        /// @notice Current number of votes in favor of this proposal\n        uint forVotes;\n\n        /// @notice Current number of votes in opposition to this proposal\n        uint againstVotes;\n\n        /// @notice Flag marking whether the proposal has been canceled\n        bool canceled;\n\n        /// @notice Flag marking whether the proposal has been executed\n        bool executed;\n\n        /// @notice Receipts of ballots for the entire set of voters\n        mapping (address => Receipt) receipts;\n    }\n\n    /// @notice Ballot receipt record for a voter\n    struct Receipt {\n        /// @notice Whether or not a vote has been cast\n        bool hasVoted;\n\n        /// @notice Whether or not the voter supports the proposal\n        bool support;\n\n        /// @notice The number of votes the voter had, which were cast\n        uint votes;\n    }\n\n    /// @notice Possible states that a proposal may be in\n    enum ProposalState {\n        Pending,\n        Active,\n        Canceled,\n        Defeated,\n        Succeeded,\n        Queued,\n        Expired,\n        Executed\n    }\n\n    /// @notice The official record of all proposals ever proposed\n    mapping (uint => Proposal) public proposals;\n\n    /// @notice The latest proposal for each proposer\n    mapping (address => uint) public latestProposalIds;\n\n    /// @notice The EIP-712 typehash for the contract's domain\n    bytes32 public constant DOMAIN_TYPEHASH = keccak256(\"EIP712Domain(string name,uint256 chainId,address verifyingContract)\");\n\n    /// @notice The EIP-712 typehash for the ballot struct used by the contract\n    bytes32 public constant BALLOT_TYPEHASH = keccak256(\"Ballot(uint256 proposalId,bool support)\");\n\n    /// @notice An event emitted when a new proposal is created\n    event ProposalCreated(uint id, address proposer, address[] targets, uint[] values, string[] signatures, bytes[] calldatas, uint startBlock, uint endBlock, string description);\n\n    /// @notice An event emitted when a vote has been cast on a proposal\n    event VoteCast(address voter, uint proposalId, bool support, uint votes);\n\n    /// @notice An event emitted when a proposal has been canceled\n    event ProposalCanceled(uint id);\n\n    /// @notice An event emitted when a proposal has been queued in the Timelock\n    event ProposalQueued(uint id, uint eta);\n\n    /// @notice An event emitted when a proposal has been executed in the Timelock\n    event ProposalExecuted(uint id);\n\n    constructor(address staking_) public {\n        staking = StakingInterface(staking_);\n        guardian = msg.sender;\n    }\n\n    function propose(address[] memory targets, uint[] memory values, string[] memory signatures, bytes[] memory calldatas, string memory description) public returns (uint) {\n        uint latestProposalId = proposalCount + 1;\n        uint votes = staking._setProposalVals(msg.sender, latestProposalId);\n        \n        require(votes > proposalThreshold(), \"GovernorAlphaBZX::propose: proposer votes below proposal threshold\");\n        require(targets.length == values.length && targets.length == signatures.length && targets.length == calldatas.length, \"GovernorAlphaBZX::propose: proposal function information arity mismatch\");\n        require(targets.length != 0, \"GovernorAlphaBZX::propose: must provide actions\");\n        require(targets.length <= proposalMaxOperations(), \"GovernorAlphaBZX::propose: too many actions\");\n\n        uint startBlock = add256(block.number, votingDelay());\n        uint endBlock = add256(startBlock, votingPeriod());\n\n        proposalCount = latestProposalId;\n        Proposal memory newProposal = Proposal({\n            id: latestProposalId,\n            proposer: msg.sender,\n            eta: 0,\n            targets: targets,\n            values: values,\n            signatures: signatures,\n            calldatas: calldatas,\n            startBlock: startBlock,\n            endBlock: endBlock,\n            forVotes: 0,\n            againstVotes: 0,\n            canceled: false,\n            executed: false\n        });\n\n        proposals[newProposal.id] = newProposal;\n        latestProposalIds[newProposal.proposer] = newProposal.id;\n\n        latestProposalId = latestProposalIds[msg.sender]; // repurpose variable\n        if (latestProposalId != 0) {\n            ProposalState proposersLatestProposalState = state(latestProposalId);\n            require(proposersLatestProposalState != ProposalState.Active, \"GovernorAlphaBZX::propose: one live proposal per proposer, found an already active proposal\");\n            require(proposersLatestProposalState != ProposalState.Pending, \"GovernorAlphaBZX::propose: one live proposal per proposer, found an already pending proposal\");\n        }\n\n        emit ProposalCreated(newProposal.id, msg.sender, targets, values, signatures, calldatas, startBlock, endBlock, description);\n        return newProposal.id;\n    }\n\n    function queue(uint proposalId) public {\n        require(state(proposalId) == ProposalState.Succeeded, \"GovernorAlphaBZX::queue: proposal can only be queued if it is succeeded\");\n        Proposal storage proposal = proposals[proposalId];\n        uint eta = add256(block.timestamp, timelock.delay());\n        for (uint i = 0; i < proposal.targets.length; i++) {\n            _queueOrRevert(proposal.targets[i], proposal.values[i], proposal.signatures[i], proposal.calldatas[i], eta);\n        }\n        proposal.eta = eta;\n        emit ProposalQueued(proposalId, eta);\n    }\n\n    function _queueOrRevert(address target, uint value, string memory signature, bytes memory data, uint eta) internal {\n        require(!timelock.queuedTransactions(keccak256(abi.encode(target, value, signature, data, eta))), \"GovernorAlphaBZX::_queueOrRevert: proposal action already queued at eta\");\n        timelock.queueTransaction(target, value, signature, data, eta);\n    }\n\n    function execute(uint proposalId) public payable {\n        require(state(proposalId) == ProposalState.Queued, \"GovernorAlphaBZX::execute: proposal can only be executed if it is queued\");\n        Proposal storage proposal = proposals[proposalId];\n        proposal.executed = true;\n        for (uint i = 0; i < proposal.targets.length; i++) {\n            timelock.executeTransaction.value(proposal.values[i])(proposal.targets[i], proposal.values[i], proposal.signatures[i], proposal.calldatas[i], proposal.eta);\n        }\n        emit ProposalExecuted(proposalId);\n    }\n\n    function cancel(uint proposalId) public {\n        ProposalState state = state(proposalId);\n        require(state != ProposalState.Executed, \"GovernorAlphaBZX::cancel: cannot cancel executed proposal\");\n\n        Proposal storage proposal = proposals[proposalId];\n        require(msg.sender == guardian || staking.votingBalanceOfNow(proposal.proposer) < proposalThreshold(), \"GovernorAlphaBZX::cancel: proposer above threshold\");\n\n        proposal.canceled = true;\n        for (uint i = 0; i < proposal.targets.length; i++) {\n            timelock.cancelTransaction(proposal.targets[i], proposal.values[i], proposal.signatures[i], proposal.calldatas[i], proposal.eta);\n        }\n\n        emit ProposalCanceled(proposalId);\n    }\n\n    function getActions(uint proposalId) public view returns (address[] memory targets, uint[] memory values, string[] memory signatures, bytes[] memory calldatas) {\n        Proposal storage p = proposals[proposalId];\n        return (p.targets, p.values, p.signatures, p.calldatas);\n    }\n\n    function getReceipt(uint proposalId, address voter) public view returns (Receipt memory) {\n        return proposals[proposalId].receipts[voter];\n    }\n\n    function state(uint proposalId) public view returns (ProposalState) {\n        require(proposalCount >= proposalId && proposalId > 0, \"GovernorAlphaBZX::state: invalid proposal id\");\n        Proposal storage proposal = proposals[proposalId];\n        if (proposal.canceled) {\n            return ProposalState.Canceled;\n        } else if (block.number <= proposal.startBlock) {\n            return ProposalState.Pending;\n        } else if (block.number <= proposal.endBlock) {\n            return ProposalState.Active;\n        } else if (proposal.forVotes <= proposal.againstVotes || proposal.forVotes < quorumVotes()) {\n            return ProposalState.Defeated;\n        } else if (proposal.eta == 0) {\n            return ProposalState.Succeeded;\n        } else if (proposal.executed) {\n            return ProposalState.Executed;\n        } else if (block.timestamp >= add256(proposal.eta, timelock.GRACE_PERIOD())) {\n            return ProposalState.Expired;\n        } else {\n            return ProposalState.Queued;\n        }\n    }\n\n    function castVote(uint proposalId, bool support) public {\n        return _castVote(msg.sender, proposalId, support);\n    }\n\n    function castVoteBySig(uint proposalId, bool support, uint8 v, bytes32 r, bytes32 s) public {\n        bytes32 domainSeparator = keccak256(abi.encode(DOMAIN_TYPEHASH, keccak256(bytes(name)), getChainId(), address(this)));\n        bytes32 structHash = keccak256(abi.encode(BALLOT_TYPEHASH, proposalId, support));\n        bytes32 digest = keccak256(abi.encodePacked(\"\\x19\\x01\", domainSeparator, structHash));\n        address signatory = ecrecover(digest, v, r, s);\n        require(signatory != address(0), \"GovernorAlphaBZX::castVoteBySig: invalid signature\");\n        return _castVote(signatory, proposalId, support);\n    }\n\n    function _castVote(address voter, uint proposalId, bool support) internal {\n        require(state(proposalId) == ProposalState.Active, \"GovernorAlphaBZX::_castVote: voting is closed\");\n        Proposal storage proposal = proposals[proposalId];\n        Receipt storage receipt = proposal.receipts[voter];\n        require(receipt.hasVoted == false, \"GovernorAlphaBZX::_castVote: voter already voted\");\n        uint votes = staking.votingBalanceOf(voter, proposalId);\n\n        if (support) {\n            proposal.forVotes = add256(proposal.forVotes, votes);\n        } else {\n            proposal.againstVotes = add256(proposal.againstVotes, votes);\n        }\n\n        receipt.hasVoted = true;\n        receipt.support = support;\n        receipt.votes = votes;\n\n        emit VoteCast(voter, proposalId, support, votes);\n    }\n\n    function __changeGuardian(address guardian_) public {\n        require(msg.sender == guardian, \"GovernorAlphaBZX::__changeGuardian: sender must be gov guardian\");\n        require(guardian_ != address(0), \"GovernorAlphaBZX::__changeGuardian: not allowed\");\n        guardian = guardian_;\n    }\n\n    function __acceptAdmin() public {\n        require(msg.sender == guardian, \"GovernorAlphaBZX::__acceptAdmin: sender must be gov guardian\");\n        timelock.acceptAdmin();\n    }\n\n    function __abdicate() public {\n        require(msg.sender == guardian, \"GovernorAlphaBZX::__abdicate: sender must be gov guardian\");\n        guardian = address(0);\n    }\n\n    function __queueSetTimelockPendingAdmin(address newPendingAdmin, uint eta) public {\n        require(msg.sender == guardian, \"GovernorAlphaBZX::__queueSetTimelockPendingAdmin: sender must be gov guardian\");\n        timelock.queueTransaction(address(timelock), 0, \"setPendingAdmin(address)\", abi.encode(newPendingAdmin), eta);\n    }\n\n    function __executeSetTimelockPendingAdmin(address newPendingAdmin, uint eta) public {\n        require(msg.sender == guardian, \"GovernorAlphaBZX::__executeSetTimelockPendingAdmin: sender must be gov guardian\");\n        timelock.executeTransaction(address(timelock), 0, \"setPendingAdmin(address)\", abi.encode(newPendingAdmin), eta);\n    }\n\n    function add256(uint a, uint b) internal pure returns (uint) {\n        uint c = a + b;\n        require(c >= a, \"addition overflow\");\n        return c;\n    }\n\n    function sub256(uint a, uint b) internal pure returns (uint) {\n        require(b <= a, \"subtraction underflow\");\n        return a - b;\n    }\n\n    function getChainId() internal pure returns (uint) {\n        uint chainId;\n        assembly { chainId := chainid() }\n        return chainId;\n    }\n}\n\ninterface TimelockInterface {\n    function delay() external view returns (uint);\n    function GRACE_PERIOD() external view returns (uint);\n    function acceptAdmin() external;\n    function queuedTransactions(bytes32 hash) external view returns (bool);\n    function queueTransaction(address target, uint value, string calldata signature, bytes calldata data, uint eta) external returns (bytes32);\n    function cancelTransaction(address target, uint value, string calldata signature, bytes calldata data, uint eta) external;\n    function executeTransaction(address target, uint value, string calldata signature, bytes calldata data, uint eta) external payable returns (bytes memory);\n}\n\ninterface StakingInterface {\n    function votingBalanceOf(\n        address account,\n        uint proposalCount)\n        external\n        view\n        returns (uint totalVotes);\n\n    function votingBalanceOfNow(\n        address account)\n        external\n        view\n        returns (uint totalVotes);\n\n    function _setProposalVals(\n        address account,\n        uint proposalCount)\n        external\n        returns (uint);\n}\n",
  "sourcePath": "contracts/staking/GovernorAlphaBZX.sol",
  "type": "contract"
}